{
  "contractName": "ChannelManager",
  "abi": [
    {
      "constant": true,
      "inputs": [
        {
          "name": "",
          "type": "bytes32"
        }
      ],
      "name": "channels",
      "outputs": [
        {
          "name": "status",
          "type": "uint8"
        },
        {
          "name": "partyA",
          "type": "address"
        },
        {
          "name": "sequence",
          "type": "uint256"
        },
        {
          "name": "threadRootHash",
          "type": "bytes32"
        },
        {
          "name": "numOpenThread",
          "type": "uint256"
        },
        {
          "name": "confirmTime",
          "type": "uint256"
        },
        {
          "name": "openTimeout",
          "type": "uint256"
        },
        {
          "name": "updateTimeout",
          "type": "uint256"
        }
      ],
      "payable": false,
      "stateMutability": "view",
      "type": "function"
    },
    {
      "constant": true,
      "inputs": [],
      "name": "NAME",
      "outputs": [
        {
          "name": "",
          "type": "string"
        }
      ],
      "payable": false,
      "stateMutability": "view",
      "type": "function"
    },
    {
      "constant": true,
      "inputs": [],
      "name": "approvedToken",
      "outputs": [
        {
          "name": "",
          "type": "address"
        }
      ],
      "payable": false,
      "stateMutability": "view",
      "type": "function"
    },
    {
      "constant": true,
      "inputs": [
        {
          "name": "",
          "type": "bytes32"
        }
      ],
      "name": "threads",
      "outputs": [
        {
          "name": "status",
          "type": "uint8"
        },
        {
          "name": "sequence",
          "type": "uint256"
        },
        {
          "name": "partyA",
          "type": "address"
        },
        {
          "name": "partyB",
          "type": "address"
        },
        {
          "name": "updateTimeout",
          "type": "uint256"
        }
      ],
      "payable": false,
      "stateMutability": "view",
      "type": "function"
    },
    {
      "constant": true,
      "inputs": [],
      "name": "hubAddress",
      "outputs": [
        {
          "name": "",
          "type": "address"
        }
      ],
      "payable": false,
      "stateMutability": "view",
      "type": "function"
    },
    {
      "constant": true,
      "inputs": [],
      "name": "VERSION",
      "outputs": [
        {
          "name": "",
          "type": "string"
        }
      ],
      "payable": false,
      "stateMutability": "view",
      "type": "function"
    },
    {
      "inputs": [
        {
          "name": "_tokenAddress",
          "type": "address"
        },
        {
          "name": "_hubAddress",
          "type": "address"
        }
      ],
      "payable": false,
      "stateMutability": "nonpayable",
      "type": "constructor"
    },
    {
      "anonymous": false,
      "inputs": [
        {
          "indexed": true,
          "name": "channelId",
          "type": "bytes32"
        },
        {
          "indexed": true,
          "name": "partyA",
          "type": "address"
        },
        {
          "indexed": false,
          "name": "weiBalanceA",
          "type": "uint256"
        },
        {
          "indexed": false,
          "name": "tokenBalanceA",
          "type": "uint256"
        },
        {
          "indexed": false,
          "name": "openTimeout",
          "type": "uint256"
        }
      ],
      "name": "DidChannelOpen",
      "type": "event"
    },
    {
      "anonymous": false,
      "inputs": [
        {
          "indexed": true,
          "name": "channelId",
          "type": "bytes32"
        },
        {
          "indexed": false,
          "name": "weiBalanceI",
          "type": "uint256"
        },
        {
          "indexed": false,
          "name": "tokenBalanceI",
          "type": "uint256"
        }
      ],
      "name": "DidChannelJoin",
      "type": "event"
    },
    {
      "anonymous": false,
      "inputs": [
        {
          "indexed": true,
          "name": "channelId",
          "type": "bytes32"
        },
        {
          "indexed": true,
          "name": "recipient",
          "type": "address"
        },
        {
          "indexed": false,
          "name": "weiDeposit",
          "type": "uint256"
        },
        {
          "indexed": false,
          "name": "tokenDeposit",
          "type": "uint256"
        }
      ],
      "name": "DidChannelDeposit",
      "type": "event"
    },
    {
      "anonymous": false,
      "inputs": [
        {
          "indexed": true,
          "name": "channelId",
          "type": "bytes32"
        },
        {
          "indexed": false,
          "name": "sequence",
          "type": "uint256"
        },
        {
          "indexed": false,
          "name": "weiBalanceA",
          "type": "uint256"
        },
        {
          "indexed": false,
          "name": "tokenBalanceA",
          "type": "uint256"
        },
        {
          "indexed": false,
          "name": "weiBalanceI",
          "type": "uint256"
        },
        {
          "indexed": false,
          "name": "tokenBalanceI",
          "type": "uint256"
        },
        {
          "indexed": false,
          "name": "numOpenThread",
          "type": "uint256"
        },
        {
          "indexed": false,
          "name": "threadRoot",
          "type": "bytes32"
        },
        {
          "indexed": false,
          "name": "updateTimeout",
          "type": "uint256"
        }
      ],
      "name": "DidChannelUpdateState",
      "type": "event"
    },
    {
      "anonymous": false,
      "inputs": [
        {
          "indexed": true,
          "name": "channelId",
          "type": "bytes32"
        },
        {
          "indexed": false,
          "name": "sequence",
          "type": "uint256"
        },
        {
          "indexed": false,
          "name": "weiBalanceA",
          "type": "uint256"
        },
        {
          "indexed": false,
          "name": "tokenBalanceA",
          "type": "uint256"
        },
        {
          "indexed": false,
          "name": "weiBalanceI",
          "type": "uint256"
        },
        {
          "indexed": false,
          "name": "tokenBalanceI",
          "type": "uint256"
        }
      ],
      "name": "DidChannelClose",
      "type": "event"
    },
    {
      "anonymous": false,
      "inputs": [
        {
          "indexed": true,
          "name": "channelId",
          "type": "bytes32"
        },
        {
          "indexed": false,
          "name": "sequence",
          "type": "uint256"
        },
        {
          "indexed": false,
          "name": "weiBalanceA",
          "type": "uint256"
        },
        {
          "indexed": false,
          "name": "tokenBalanceA",
          "type": "uint256"
        },
        {
          "indexed": false,
          "name": "weiBalanceI",
          "type": "uint256"
        },
        {
          "indexed": false,
          "name": "tokenBalanceI",
          "type": "uint256"
        },
        {
          "indexed": false,
          "name": "numOpenThread",
          "type": "uint256"
        },
        {
          "indexed": false,
          "name": "threadRoot",
          "type": "bytes32"
        },
        {
          "indexed": false,
          "name": "updateTimeout",
          "type": "uint256"
        }
      ],
      "name": "DidChannelStartSettlement",
      "type": "event"
    },
    {
      "anonymous": false,
      "inputs": [
        {
          "indexed": true,
          "name": "channelId",
          "type": "bytes32"
        },
        {
          "indexed": true,
          "name": "threadId",
          "type": "bytes32"
        },
        {
          "indexed": false,
          "name": "proof",
          "type": "bytes"
        },
        {
          "indexed": false,
          "name": "sequence",
          "type": "uint256"
        },
        {
          "indexed": false,
          "name": "partyA",
          "type": "address"
        },
        {
          "indexed": false,
          "name": "partyB",
          "type": "address"
        },
        {
          "indexed": false,
          "name": "weiBalanceA",
          "type": "uint256"
        },
        {
          "indexed": false,
          "name": "tokenBalanceA",
          "type": "uint256"
        }
      ],
      "name": "DidThreadInit",
      "type": "event"
    },
    {
      "anonymous": false,
      "inputs": [
        {
          "indexed": true,
          "name": "channelId",
          "type": "bytes32"
        },
        {
          "indexed": true,
          "name": "threadId",
          "type": "bytes32"
        },
        {
          "indexed": false,
          "name": "sequence",
          "type": "uint256"
        },
        {
          "indexed": false,
          "name": "weiBalanceA",
          "type": "uint256"
        },
        {
          "indexed": false,
          "name": "tokenBalanceA",
          "type": "uint256"
        },
        {
          "indexed": false,
          "name": "weiBalanceI",
          "type": "uint256"
        },
        {
          "indexed": false,
          "name": "tokenBalanceI",
          "type": "uint256"
        },
        {
          "indexed": false,
          "name": "updateTimeout",
          "type": "uint256"
        }
      ],
      "name": "DidThreadSettle",
      "type": "event"
    },
    {
      "anonymous": false,
      "inputs": [
        {
          "indexed": true,
          "name": "channelId",
          "type": "bytes32"
        },
        {
          "indexed": true,
          "name": "threadId",
          "type": "bytes32"
        },
        {
          "indexed": false,
          "name": "weiBalanceA",
          "type": "uint256"
        },
        {
          "indexed": false,
          "name": "tokenBalanceA",
          "type": "uint256"
        },
        {
          "indexed": false,
          "name": "weiBalanceI",
          "type": "uint256"
        },
        {
          "indexed": false,
          "name": "tokenBalanceI",
          "type": "uint256"
        }
      ],
      "name": "DidThreadClose",
      "type": "event"
    },
    {
      "constant": false,
      "inputs": [
        {
          "name": "channelId",
          "type": "bytes32"
        },
        {
          "name": "confirmTime",
          "type": "uint256"
        },
        {
          "name": "tokenBalance",
          "type": "uint256"
        }
      ],
      "name": "createChannel",
      "outputs": [],
      "payable": true,
      "stateMutability": "payable",
      "type": "function"
    },
    {
      "constant": false,
      "inputs": [
        {
          "name": "channelId",
          "type": "bytes32"
        }
      ],
      "name": "channelOpenTimeout",
      "outputs": [],
      "payable": false,
      "stateMutability": "nonpayable",
      "type": "function"
    },
    {
      "constant": false,
      "inputs": [
        {
          "name": "channelId",
          "type": "bytes32"
        },
        {
          "name": "tokenBalance",
          "type": "uint256"
        }
      ],
      "name": "joinChannel",
      "outputs": [],
      "payable": true,
      "stateMutability": "payable",
      "type": "function"
    },
    {
      "constant": false,
      "inputs": [
        {
          "name": "channelId",
          "type": "bytes32"
        },
        {
          "name": "tokenDeposit",
          "type": "uint256"
        },
        {
          "name": "sequence",
          "type": "uint256"
        },
        {
          "name": "numOpenThread",
          "type": "uint256"
        },
        {
          "name": "threadRootHash",
          "type": "bytes32"
        },
        {
          "name": "sigA",
          "type": "string"
        },
        {
          "name": "sigI",
          "type": "string"
        }
      ],
      "name": "deposit",
      "outputs": [],
      "payable": true,
      "stateMutability": "payable",
      "type": "function"
    },
    {
      "constant": false,
      "inputs": [
        {
          "name": "channelId",
          "type": "bytes32"
        },
        {
          "name": "sequence",
          "type": "uint256"
        },
        {
          "name": "balances",
          "type": "uint256[4]"
        },
        {
          "name": "sigA",
          "type": "string"
        },
        {
          "name": "sigI",
          "type": "string"
        }
      ],
      "name": "consensusCloseChannel",
      "outputs": [],
      "payable": false,
      "stateMutability": "nonpayable",
      "type": "function"
    },
    {
      "constant": false,
      "inputs": [
        {
          "name": "channelId",
          "type": "bytes32"
        },
        {
          "name": "updateParams",
          "type": "uint256[6]"
        },
        {
          "name": "threadRootHash",
          "type": "bytes32"
        },
        {
          "name": "sigA",
          "type": "string"
        },
        {
          "name": "sigI",
          "type": "string"
        }
      ],
      "name": "checkpointChannel",
      "outputs": [],
      "payable": false,
      "stateMutability": "nonpayable",
      "type": "function"
    },
    {
      "constant": false,
      "inputs": [
        {
          "name": "channelId",
          "type": "bytes32"
        }
      ],
      "name": "startChannelSettlement",
      "outputs": [],
      "payable": false,
      "stateMutability": "nonpayable",
      "type": "function"
    },
    {
      "constant": false,
      "inputs": [
        {
          "name": "channelId",
          "type": "bytes32"
        },
        {
          "name": "updateParams",
          "type": "uint256[6]"
        },
        {
          "name": "threadRootHash",
          "type": "bytes32"
        },
        {
          "name": "sigA",
          "type": "string"
        },
        {
          "name": "sigI",
          "type": "string"
        }
      ],
      "name": "checkpointChannelDispute",
      "outputs": [],
      "payable": false,
      "stateMutability": "nonpayable",
      "type": "function"
    },
    {
      "constant": false,
      "inputs": [
        {
          "name": "channelId",
          "type": "bytes32"
        },
        {
          "name": "threadId",
          "type": "bytes32"
        },
        {
          "name": "proof",
          "type": "bytes"
        },
        {
          "name": "partyA",
          "type": "address"
        },
        {
          "name": "partyB",
          "type": "address"
        },
        {
          "name": "balances",
          "type": "uint256[2]"
        },
        {
          "name": "sigA",
          "type": "string"
        }
      ],
      "name": "initThread",
      "outputs": [],
      "payable": false,
      "stateMutability": "nonpayable",
      "type": "function"
    },
    {
      "constant": false,
      "inputs": [
        {
          "name": "channelId",
          "type": "bytes32"
        },
        {
          "name": "threadId",
          "type": "bytes32"
        },
        {
          "name": "sequence",
          "type": "uint256"
        },
        {
          "name": "partyA",
          "type": "address"
        },
        {
          "name": "partyB",
          "type": "address"
        },
        {
          "name": "balances",
          "type": "uint256[4]"
        },
        {
          "name": "sigA",
          "type": "string"
        }
      ],
      "name": "settleThread",
      "outputs": [],
      "payable": false,
      "stateMutability": "nonpayable",
      "type": "function"
    },
    {
      "constant": false,
      "inputs": [
        {
          "name": "channelId",
          "type": "bytes32"
        },
        {
          "name": "threadId",
          "type": "bytes32"
        }
      ],
      "name": "closeThread",
      "outputs": [],
      "payable": false,
      "stateMutability": "nonpayable",
      "type": "function"
    },
    {
      "constant": false,
      "inputs": [
        {
          "name": "channelId",
          "type": "bytes32"
        }
      ],
      "name": "byzantineCloseChannel",
      "outputs": [],
      "payable": false,
      "stateMutability": "nonpayable",
      "type": "function"
    }
  ],
  "bytecode": "0x608060405234801561001057600080fd5b5060405160408061481983398101604052805160209091015160028054600160a060020a03938416600160a060020a031991821617909155600380549390921692169190911790556147b2806100676000396000f3006080604052600436106100fb5763ffffffff7c010000000000000000000000000000000000000000000000000000000060003504166323e26b4e811461010057806335391024146101c857806339495ecf146101e35780634247a0ba146101f15780634f4536a1146102b65780637051d476146102ce5780637a7ebd7b146103aa5780639acae9fc1461041d578063a3f4df7e1461042e578063bab46259146104b8578063bcfe69cf146104e9578063ce32957014610586578063e0489e4d1461059e578063e1627c241461061a578063f69b1b2914610632578063f7cdc7d614610647578063f88e31db1461070d578063ffa1ad74146107ae575b600080fd5b34801561010c57600080fd5b506040805160c08181019092526101c6916004803592369260e49190602490600690839083908082843750506040805160208781013589018035601f81018390048302840183018552808452979a89359a90999098940196509194509081019250819084018382808284375050604080516020601f89358b018035918201839004830284018301909452808352979a9998810197919650918201945092508291508401838280828437509497506107c39650505050505050565b005b3480156101d457600080fd5b506101c6600435602435610af3565b6101c6600435602435610e31565b3480156101fd57600080fd5b506040805160808181019092526101c69160048035926024359236929160c491604490849083908390808284375050604080516020601f88358a0180359182018390048302840183019094528083529699989781019691955091820193509150819084018382808284375050604080516020601f89358b018035918201839004830284018301909452808352979a9998810197919650918201945092508291508401838280828437509497506110ce9650505050505050565b3480156102c257600080fd5b506101c6600435611aa9565b3480156102da57600080fd5b50604080516020600460443581810135601f81018490048402850184019095528484526101c6948235946024803595369594606494920191908190840183828082843750506040805180820182529598600160a060020a03883581169960208a013590911698919790965060808201955093508101915060029083908390808284375050604080516020601f88358a01803591820183900483028401830190945280835296999897810196919550918201935091508190840183828082843750949750611e3b9650505050505050565b3480156103b657600080fd5b506103c26004356125a2565b604051808960048111156103d257fe5b60ff168152600160a060020a039098166020890152506040808801969096526060870194909452608086019290925260a085015260c084015260e08301525190819003610100019150f35b6101c66004356024356044356125ea565b34801561043a57600080fd5b506104436128f8565b6040805160208082528351818301528351919283929083019185019080838360005b8381101561047d578181015183820152602001610465565b50505050905090810190601f1680156104aa5780820380516001836020036101000a031916815260200191505b509250505060405180910390f35b3480156104c457600080fd5b506104cd61292f565b60408051600160a060020a039092168252519081900360200190f35b604080516020600460a43581810135601f81018490048402850184019095528484526101c69482359460248035956044359560643595608435953695929460c494920191819084018382808284375050604080516020601f89358b018035918201839004830284018301909452808352979a99988101979196509182019450925082915084018382808284375094975061293e9650505050505050565b34801561059257600080fd5b506101c6600435612ca4565b3480156105aa57600080fd5b506105b660043561318c565b604051808660028111156105c657fe5b60ff16815260200185815260200184600160a060020a0316600160a060020a0316815260200183600160a060020a0316600160a060020a031681526020018281526020019550505050505060405180910390f35b34801561062657600080fd5b506101c66004356131cc565b34801561063e57600080fd5b506104cd6133b8565b34801561065357600080fd5b506040805160c08181019092526101c6916004803592369260e49190602490600690839083908082843750506040805160208781013589018035601f81018390048302840183018552808452979a89359a90999098940196509194509081019250819084018382808284375050604080516020601f89358b018035918201839004830284018301909452808352979a9998810197919650918201945092508291508401838280828437509497506133c79650505050505050565b34801561071957600080fd5b506040805160808181019092526101c69160048035926024359260443592600160a060020a03606435811693608435909116923692916101249160a490849083908390808284375050604080516020601f88358a018035918201839004830284018301909452808352969998978101969195509182019350915081908401838280828437509497506136949650505050505050565b3480156107ba57600080fd5b50610443613ec4565b60008581526001602052604090206003815460ff1660048111156107e357fe5b1461085e576040805160e560020a62461bcd02815260206004820152603c60248201527f636865636b706f696e744368616e6e656c3a204368616e6e656c20737461747560448201527f73206d757374206265204a6f696e6564206f7220536574746c696e6700000000606482015290519081900360840190fd5b600a810154421061086e57600080fd5b61088f6003820160005b01546001830160005b01549063ffffffff613efb16565b6108b08660035b60200201518760025b60200201519063ffffffff613efb16565b1115610952576040805160e560020a62461bcd02815260206004820152604e60248201527f636865636b706f696e744368616e6e656c3a204f6e2d636861696e206574682060448201527f62616c616e636573206d75737420626520686967686572207468616e2070726f60648201527f76696465642062616c616e636573000000000000000000000000000000000000608482015290519081900360a40190fd5b6109696003820160015b0154600180840190610881565b61097d8660055b602002015187600461089f565b1115610a1f576040805160e560020a62461bcd02815260206004820152605060248201527f636865636b706f696e744368616e6e656c3a204f6e2d636861696e20746f6b6560448201527f6e2062616c616e636573206d75737420626520686967686572207468616e207060648201527f726f76696465642062616c616e63657300000000000000000000000000000000608482015290519081900360a40190fd5b610a2f6000828888888888613f14565b6008810154610a4590429063ffffffff613efb16565b600a820155857f8d20d58d50d72d2420224743a4cb55dc22653ef029ba687b74f7010da8ea381a8660005b60200201518760026020020151886003602002015189600460200201518a600560200201518b600160209081029190910151600a8a01546040805198895292880196909652868201949094526060860192909252608085015260a084019190915260c0830189905260e083019190915251908190036101000190a2505050505050565b6000828152600160209081526040808320848452918390529091206003825460ff166004811115610b2057fe5b14610b9b576040805160e560020a62461bcd02815260206004820152602c60248201527f636c6f73655468726561643a204368616e6e656c20737461747573206d75737460448201527f20626520536574746c696e670000000000000000000000000000000000000000606482015290519081900360840190fd5b6001815460ff166002811115610bad57fe5b14610c28576040805160e560020a62461bcd02815260206004820152603460248201527f636c6f73655468726561643a205669727475616c206368616e6e656c2073746160448201527f747573206d75737420626520536574746c696e67000000000000000000000000606482015290519081900360840190fd5b60088101544211610ca9576040805160e560020a62461bcd02815260206004820152602f60248201527f636c6f73655468726561643a205570646174652056432074696d656f7574206860448201527f6173206e6f7420657870697265642e0000000000000000000000000000000000606482015290519081900360840190fd5b6007820154610cbf90600163ffffffff6145c116565b6007830155805460ff191660029081178255825490820154610100909104600160a060020a0390811691161415610d6557610d076004820160005b0154600184016000610881565b6001830155610d236006820160005b0154600384016000610881565b6003830155610d3f6004820160015b0154600180850190610881565b6002830155610d5b6006820160015b0154600384016001610881565b6004830155610dcd565b6003805490820154600160a060020a0390811691161415610dcd57610d8e600682016000610cfa565b6001830155610da1600482016000610d16565b6003830155610db4600682016001610d32565b6002830155610dc7600482016001610d4e565b60048301555b600481015460058201546006830154600784015460408051948552602085019390935283830191909152606083015251849186917f6d6faf5520e4a0cdb7c48af68c17793f4589a4e7ddbd66be1bc33fe11cc603e79181900360800190a350505050565b600082815260016020819052604090912090815460ff166004811115610e5357fe5b14610ece576040805160e560020a62461bcd02815260206004820152602a60248201527f6a6f696e4368616e6e656c3a204368616e6e656c20737461747573206d75737460448201527f206265204f70656e656400000000000000000000000000000000000000000000606482015290519081900360840190fd5b600354600160a060020a03163314610f56576040805160e560020a62461bcd02815260206004820152603760248201527f6a6f696e4368616e6e656c3a204368616e6e656c2063616e206f6e6c7920626560448201527f206a6f696e656420627920636f756e7465727061727479000000000000000000606482015290519081900360840190fd5b805460ff19166002908117825534600383015554604080517f23b872dd000000000000000000000000000000000000000000000000000000008152336004820152306024820152604481018590529051600160a060020a03909216916323b872dd916064808201926020929091908290030181600087803b158015610fda57600080fd5b505af1158015610fee573d6000803e3d6000fd5b505050506040513d602081101561100457600080fd5b50511515611082576040805160e560020a62461bcd02815260206004820152602360248201527f6a6f696e4368616e6e656c3a20746f6b656e207472616e73666572206661696c60448201527f7572650000000000000000000000000000000000000000000000000000000000606482015290519081900360840190fd5b6004810182905560038101546040805191825260208201849052805185927f7903740ac5c31a7959b06af79a62f0c4f64aa62b2ecd86fbc8c5559d0a47299e92908290030190a2505050565b6000858152600160205260408120906002825460ff1660048111156110ef57fe5b1461116a576040805160e560020a62461bcd02815260206004820152603460248201527f636f6e73656e737573436c6f73654368616e6e656c3a204368616e6e656c207360448201527f7461747573206d757374206265204a6f696e6564000000000000000000000000606482015290519081900360840190fd5b611178600383016000610cfa565b60208601516111899087600061089f565b1461122a576040805160e560020a62461bcd02815260206004820152604b60248201527f636f6e73656e737573436c6f73654368616e6e656c3a204f6e2d636861696e2060448201527f7765692062616c616e636573206e6f7420657175616c20746f2070726f76696460648201527f65642062616c616e636573000000000000000000000000000000000000000000608482015290519081900360a40190fd5b611238600383016001610d32565b60608601516112499087600261089f565b146112ea576040805160e560020a62461bcd02815260206004820152604d60248201527f636f6e73656e737573436c6f73654368616e6e656c3a204f6e2d636861696e2060448201527f746f6b656e2062616c616e636573206e6f7420657175616c20746f2070726f7660648201527f696465642062616c616e63657300000000000000000000000000000000000000608482015290519081900360a40190fd5b8154600354889188916000918291600160a060020a03610100909204821691168a8360200201518b600160200201518c600260200201518d600360209081029190910151604080518084019c909c527f434c4f53450000000000000000000000000000000000000000000000000000008c82015260458c019a909a5260658b019890985260858a01969096526c01000000000000000000000000600160a060020a03958616810260a58b01529390941690920260b988015260cd87015260ed86015261010d85015261012d808501929092528251808503909201825261014d90930191829052805190928291908401908083835b602083106113fd5780518252601f1990920191602091820191016113de565b518151602093840361010090810a60001901801990931692909116919091179091526040805193909501839003832089547fdca9541900000000000000000000000000000000000000000000000000000000855260048501828152602486019788528d5160448701528d51929a50929004600160a060020a0316975073__ECTools_______________________________965063dca95419958995508c9492939092606401919085019080838360005b838110156114c55781810151838201526020016114ad565b50505050905090810190601f1680156114f25780820380516001836020036101000a031916815260200191505b50935050505060206040518083038186803b15801561151057600080fd5b505af4158015611524573d6000803e3d6000fd5b505050506040513d602081101561153a57600080fd5b5051600160a060020a0316146115c0576040805160e560020a62461bcd02815260206004820152603060248201527f636f6e73656e737573436c6f73654368616e6e656c3a2050617274792041207360448201527f69676e617475726520696e76616c696400000000000000000000000000000000606482015290519081900360840190fd5b600354604080517fdca954190000000000000000000000000000000000000000000000000000000081526004810184815260248201928352865160448301528651600160a060020a039094169373__ECTools_______________________________9363dca954199387938a9390929160640190602085019080838360005b8381101561165757818101518382015260200161163f565b50505050905090810190601f1680156116845780820380516001836020036101000a031916815260200191505b50935050505060206040518083038186803b1580156116a257600080fd5b505af41580156116b6573d6000803e3d6000fd5b505050506040513d60208110156116cc57600080fd5b5051600160a060020a031614611752576040805160e560020a62461bcd02815260206004820152603060248201527f636f6e73656e737573436c6f73654368616e6e656c3a2050617274792049207360448201527f69676e617475726520696e76616c696400000000000000000000000000000000606482015290519081900360840190fd5b8154600460ff19909116811780845560006001850181905560028501819055600385018190559184018290558651604051610100909204600160a060020a0316926108fc8215029290818181858888f193505050501580156117b8573d6000803e3d6000fd5b50600354600160a060020a03166108fc86600160200201516040518115909202916000818181858888f193505050501580156117f8573d6000803e3d6000fd5b50600254825460408088015181517fa9059cbb000000000000000000000000000000000000000000000000000000008152610100909304600160a060020a0390811660048501526024840191909152905192169163a9059cbb916044808201926020929091908290030181600087803b15801561187457600080fd5b505af1158015611888573d6000803e3d6000fd5b505050506040513d602081101561189e57600080fd5b5051151561191c576040805160e560020a62461bcd02815260206004820152602d60248201527f636f6e73656e737573436c6f73654368616e6e656c3a20546f6b656e2074726160448201527f6e73666572206661696c75726500000000000000000000000000000000000000606482015290519081900360840190fd5b6002546003546060870151604080517fa9059cbb000000000000000000000000000000000000000000000000000000008152600160a060020a039384166004820152602481019290925251919092169163a9059cbb9160448083019260209291908290030181600087803b15801561199357600080fd5b505af11580156119a7573d6000803e3d6000fd5b505050506040513d60208110156119bd57600080fd5b50511515611a3b576040805160e560020a62461bcd02815260206004820152602d60248201527f636f6e73656e737573436c6f73654368616e6e656c3a20546f6b656e2074726160448201527f6e73666572206661696c75726500000000000000000000000000000000000000606482015290519081900360840190fd5b84516020808701516040808901516060808b015183518d81529586019690965284830193909352918301919091526080820192909252905188917fea464e9e625d63a39a62726f6f8c5686e0680c0792968d9142c225840f0d11dc919081900360a00190a250505050505050565b6000818152600160205260408120805490919081906101009004600160a060020a03163314611b48576040805160e560020a62461bcd02815260206004820152602e60248201527f6368616e6e656c4f70656e54696d656f75743a2052657175657374206e6f742060448201527f73656e7420627920706172747941000000000000000000000000000000000000606482015290519081900360840190fd5b6001835460ff166004811115611b5a57fe5b14611bd5576040805160e560020a62461bcd02815260206004820152603160248201527f6368616e6e656c4f70656e54696d656f75743a204368616e6e656c207374617460448201527f7573206d757374206265204f70656e6564000000000000000000000000000000606482015290519081900360840190fd5b60098301544211611c56576040805160e560020a62461bcd02815260206004820152603760248201527f6368616e6e656c4f70656e54696d656f75743a204368616e6e656c206f70656e60448201527f54696d656f757420686173206e6f742065787069726564000000000000000000606482015290519081900360840190fd5b5050805460ff191660049081178083556001830180546002850180546000938490559083905560038601839055938501829055604051909392600160a060020a03610100909104169184156108fc02918591818181858888f19350505050158015611cc5573d6000803e3d6000fd5b506002548354604080517fa9059cbb000000000000000000000000000000000000000000000000000000008152610100909204600160a060020a03908116600484015260248301859052905192169163a9059cbb916044808201926020929091908290030181600087803b158015611d3c57600080fd5b505af1158015611d50573d6000803e3d6000fd5b505050506040513d6020811015611d6657600080fd5b50511515611de4576040805160e560020a62461bcd02815260206004820152602a60248201527f6368616e6e656c4f70656e54696d656f75743a20546f6b656e207472616e736660448201527f6572206661696c75726500000000000000000000000000000000000000000000606482015290519081900360840190fd5b60408051600080825260208201859052818301849052606082018190526080820152905185917fea464e9e625d63a39a62726f6f8c5686e0680c0792968d9142c225840f0d11dc919081900360a00190a250505050565b600033600160a060020a0386161480611e5c575033600160a060020a038516145b80611e715750600354600160a060020a031633145b1515611eed576040805160e560020a62461bcd02815260206004820152602960248201527f696e69745468726561643a2053656e646572206d75737420626520706172742060448201527f6f66207468726561640000000000000000000000000000000000000000000000606482015290519081900360840190fd5b600360008981526001602052604090205460ff166004811115611f0c57fe5b14611f87576040805160e560020a62461bcd02815260206004820152602b60248201527f696e69745468726561643a204368616e6e656c20737461747573206d7573742060448201527f626520536574746c696e67000000000000000000000000000000000000000000606482015290519081900360840190fd5b60008781526020819052604081205460ff166002811115611fa457fe5b14611ff9576040805160e560020a62461bcd02815260206004820152601960248201527f696e69745468726561643a205468726561642065786973747300000000000000604482015290519081900360640190fd5b6000888152600160205260409020600a01544211612087576040805160e560020a62461bcd02815260206004820152602e60248201527f696e69745468726561643a20557064617465206368616e6e656c2074696d656f60448201527f7574206e6f742065787069726564000000000000000000000000000000000000606482015290519081900360840190fd5b8251602080850151604080518084018c905260008183018190526c01000000000000000000000000600160a060020a03808d16820260608501528b16026074830152608882019590955260a8810185905260c881019290925260e8808301949094528051808303909401845261010890910190819052825190918291908401908083835b6020831061212a5780518252601f19909201916020918201910161210b565b51815160209384036101000a6000190180199092169116179052604080519290940182900382207fdca954190000000000000000000000000000000000000000000000000000000083526004830181815260248401958652895160448501528951919850600160a060020a038d16975073__ECTools_______________________________965063dca95419958995508a94919390926064909201919085019080838360005b838110156121e85781810151838201526020016121d0565b50505050905090810190601f1680156122155780820380516001836020036101000a031916815260200191505b50935050505060206040518083038186803b15801561223357600080fd5b505af4158015612247573d6000803e3d6000fd5b505050506040513d602081101561225d57600080fd5b5051600160a060020a0316146122e3576040805160e560020a62461bcd02815260206004820152602560248201527f696e69745468726561643a2050617274792041207369676e617475726520696e60448201527f76616c6964000000000000000000000000000000000000000000000000000000606482015290519081900360840190fd5b60008881526001602052604090206006015461230290829088906145d8565b1515600114612381576040805160e560020a62461bcd02815260206004820152603360248201527f696e69745468726561643a204f6c64207374617465206973206e6f7420636f6e60448201527f7461696e656420696e20726f6f74206861736800000000000000000000000000606482015290519081900360840190fd5b6040805160e081018252600180825260006020808401829052600160a060020a038a81168587015289166060850152608084018890528451808601865282815280820183905260a08501528c825291909152919091206008015460c08201906123eb904290613efb565b9052600088815260208190526040902081518154829060ff1916600183600281111561241357fe5b021790555060208201516001820155604082015160028083018054600160a060020a0393841673ffffffffffffffffffffffffffffffffffffffff1991821617909155606085015160038501805491909416911617909155608083015161247f91600484019190614710565b5060a08201516124959060068301906002614710565b5060c0919091015160089091015586887fef621650a5cd8bc6cf61314abbb7f9348d6f77c9d01f63359a2368585200a1318860008989898360200201518a60016020020151604051808060200187815260200186600160a060020a0316600160a060020a0316815260200185600160a060020a0316600160a060020a03168152602001848152602001838152602001828103825288818151815260200191508051906020019080838360005b83811015612559578181015183820152602001612541565b50505050905090810190601f1680156125865780820380516001836020036101000a031916815260200191505b5097505050505050505060405180910390a35050505050505050565b6001602052600090815260409020805460058201546006830154600784015460088501546009860154600a9096015460ff861696610100909604600160a060020a0316959088565b60008060008581526001602052604090205460ff16600481111561260a57fe5b14612685576040805160e560020a62461bcd02815260206004820152602560248201527f6372656174654368616e6e656c3a204368616e6e656c20616c7265616479206560448201527f7869737473000000000000000000000000000000000000000000000000000000606482015290519081900360840190fd5b600354600160a060020a031633141561270e576040805160e560020a62461bcd02815260206004820152603260248201527f6372656174654368616e6e656c3a2043616e6e6f74206372656174652063686160448201527f6e6e656c207769746820796f757273656c660000000000000000000000000000606482015290519081900360840190fd5b5060008381526001602081905260408220805460ff191690911774ffffffffffffffffffffffffffffffffffffffff00191633610100021781556005810191909155600881018390556127614284613efb565b6009820155346001820155600254604080517f23b872dd000000000000000000000000000000000000000000000000000000008152336004820152306024820152604481018590529051600160a060020a03909216916323b872dd916064808201926020929091908290030181600087803b1580156127df57600080fd5b505af11580156127f3573d6000803e3d6000fd5b505050506040513d602081101561280957600080fd5b50511515612887576040805160e560020a62461bcd02815260206004820152602560248201527f6372656174654368616e6e656c3a20546f6b656e207472616e7366657220666160448201527f696c757265000000000000000000000000000000000000000000000000000000606482015290519081900360840190fd5b816001808301015580546101009004600160a060020a0316847fd26ab7f3ce1335ed161befffdf740c8cf8d5d0348eb9ec8d27cc8a897207fd0b600184016000015460018086010154600986015460408051938452602084019290925282820152519081900360600190a350505050565b60408051808201909152600f81527f4368616e6e656c204d616e616765720000000000000000000000000000000000602082015281565b600254600160a060020a031681565b600061294861474e565b61295061474e565b60008a815260016020526040902092506002835460ff16600481111561297257fe5b146129ed576040805160e560020a62461bcd02815260206004820152602660248201527f6465706f7369743a204368616e6e656c20737461747573206d7573742062652060448201527f4a6f696e65640000000000000000000000000000000000000000000000000000606482015290519081900360840190fd5b82546101009004600160a060020a0316331480612a145750600354600160a060020a031633145b1515612a90576040805160e560020a62461bcd02815260206004820152602660248201527f6465706f7369743a2053656e646572206d757374206265206368616e6e656c2060448201527f6d656d6265720000000000000000000000000000000000000000000000000000606482015290519081900360840190fd5b82546101009004600160a060020a0316331415612ad157612ab634600185016000610881565b8252612ac789600185810190610881565b6020830152612b0a565b600354600160a060020a0316331415612b0a57612af334600385016000610881565b8152612b0489600385016001610881565b60208201525b612b646001848c60c0604051908101604052808d81526020018c8152602001876000600281101515612b3857fe5b6020908102919091015182528751828201528881015160408301528701516060909101528a8a8a613f14565b600254604080517f23b872dd000000000000000000000000000000000000000000000000000000008152336004820152306024820152604481018c90529051600160a060020a03909216916323b872dd916064808201926020929091908290030181600087803b158015612bd757600080fd5b505af1158015612beb573d6000803e3d6000fd5b505050506040513d6020811015612c0157600080fd5b50511515612c59576040805160e560020a62461bcd02815260206004820152601f60248201527f6465706f7369743a20746f6b656e207472616e73666572206661696c75726500604482015290519081900360640190fd5b60408051348152602081018b9052815133928d927fffd34715c964346b61c810301a668c0d400ad89e702f5a5ed2ceb04417b5044f929081900390910190a350505050505050505050565b6000818152600160205260408120908080806003855460ff166004811115612cc857fe5b14612d43576040805160e560020a62461bcd02815260206004820152603660248201527f62797a616e74696e65436c6f73654368616e6e656c3a204368616e6e656c207360448201527f7461747573206d75737420626520536574746c696e6700000000000000000000606482015290519081900360840190fd5b600785015415612dc3576040805160e560020a62461bcd02815260206004820152602d60248201527f62797a616e74696e65436c6f73654368616e6e656c3a204f70656e207468726560448201527f616473206d757374206265203000000000000000000000000000000000000000606482015290519081900360840190fd5b600a8501544211612e44576040805160e560020a62461bcd02815260206004820152603060248201527f62797a616e74696e65436c6f73654368616e6e656c3a204368616e6e656c207460448201527f696d656f7574206e6f74206f7665722e00000000000000000000000000000000606482015290519081900360840190fd5b5050825460ff19166004908117808555600185018054600387018054948801805460009485905560028a0185905591849055839055604051919650939450859392600160a060020a03610100909104169184156108fc02918591818181858888f19350505050158015612ebb573d6000803e3d6000fd5b50600354604051600160a060020a039091169084156108fc029085906000818181858888f19350505050158015612ef6573d6000803e3d6000fd5b506002548554604080517fa9059cbb000000000000000000000000000000000000000000000000000000008152610100909204600160a060020a03908116600484015260248301869052905192169163a9059cbb916044808201926020929091908290030181600087803b158015612f6d57600080fd5b505af1158015612f81573d6000803e3d6000fd5b505050506040513d6020811015612f9757600080fd5b50511515613015576040805160e560020a62461bcd02815260206004820152602d60248201527f62797a616e74696e65436c6f73654368616e6e656c3a20746f6b656e2074726160448201527f6e73666572206661696c75726500000000000000000000000000000000000000606482015290519081900360840190fd5b600254600354604080517fa9059cbb000000000000000000000000000000000000000000000000000000008152600160a060020a039283166004820152602481018590529051919092169163a9059cbb9160448083019260209291908290030181600087803b15801561308757600080fd5b505af115801561309b573d6000803e3d6000fd5b505050506040513d60208110156130b157600080fd5b5051151561312f576040805160e560020a62461bcd02815260206004820152602d60248201527f62797a616e74696e65436c6f73654368616e6e656c3a20746f6b656e2074726160448201527f6e73666572206661696c75726500000000000000000000000000000000000000606482015290519081900360840190fd5b6005850154604080519182526020820186905281810185905260608201849052608082018390525187917fea464e9e625d63a39a62726f6f8c5686e0680c0792968d9142c225840f0d11dc919081900360a00190a2505050505050565b6000602081905290815260409020805460018201546002830154600384015460089094015460ff909316939192600160a060020a03918216929091169085565b600081815260016020526040902080546101009004600160a060020a03163314806132015750600354600160a060020a031633145b151561327d576040805160e560020a62461bcd02815260206004820152603660248201527f73746172744368616e6e656c536574746c656d656e743a2053656e646572206d60448201527f7573742062652070617274206f66206368616e6e656c00000000000000000000606482015290519081900360840190fd5b6002815460ff16600481111561328f57fe5b1461330a576040805160e560020a62461bcd02815260206004820152603560248201527f73746172744368616e6e656c536574746c656d656e743a204368616e6e656c2060448201527f737461747573206d757374206265204a6f696e65640000000000000000000000606482015290519081900360840190fd5b805460ff191660031781556008810154613325904290613efb565b600a82018190556005820154600183015460038401546002850154600486015460078701546006880154604080519788526020880196909652868601949094526060860192909252608085015260a084015260c083015260e0820192909252905183917f9e1ebd62427270db40e8e1ee30c74b65618b78b7796a9b5f7e4157231901576c91908190036101000190a25050565b600354600160a060020a031681565b60008581526001602052604090206002815460ff1660048111156133e757fe5b14613462576040805160e560020a62461bcd02815260206004820152603c60248201527f636865636b706f696e744368616e6e656c3a204368616e6e656c20737461747560448201527f73206d757374206265204a6f696e6564206f7220536574746c696e6700000000606482015290519081900360840190fd5b60058101548551116134e4576040805160e560020a62461bcd02815260206004820152603f60248201527f636865636b706f696e744368616e6e656c3a2053657175656e6365206d75737460448201527f20626520686967686572206f72207a65726f2d73746174652075706461746500606482015290519081900360840190fd5b6134f2600382016000610878565b6134fd866003610896565b111561359f576040805160e560020a62461bcd02815260206004820152604e60248201527f636865636b706f696e744368616e6e656c3a204f6e2d636861696e206574682060448201527f62616c616e636573206d75737420626520686967686572207468616e2070726f60648201527f76696465642062616c616e636573000000000000000000000000000000000000608482015290519081900360a40190fd5b6135ad60038201600161095c565b6135b8866005610970565b111561365a576040805160e560020a62461bcd02815260206004820152605060248201527f636865636b706f696e744368616e6e656c3a204f6e2d636861696e20746f6b6560448201527f6e2062616c616e636573206d75737420626520686967686572207468616e207060648201527f726f76696465642062616c616e63657300000000000000000000000000000000608482015290519081900360a40190fd5b61366a6000828888888888613f14565b857f8d20d58d50d72d2420224743a4cb55dc22653ef029ba687b74f7010da8ea381a866000610a70565b60008681526020819052604081209033600160a060020a03871614806136c2575033600160a060020a038616145b806136d75750600354600160a060020a031633145b1515613753576040805160e560020a62461bcd02815260206004820152602b60248201527f736574746c655468726561643a2053656e646572206d7573742062652070617260448201527f74206f6620746872656164000000000000000000000000000000000000000000606482015290519081900360840190fd5b600360008a81526001602052604090205460ff16600481111561377257fe5b146137ed576040805160e560020a62461bcd02815260206004820152602d60248201527f736574746c655468726561643a204368616e6e656c20737461747573206d757360448201527f7420626520536574746c696e6700000000000000000000000000000000000000606482015290519081900360840190fd5b6001825460ff1660028111156137ff57fe5b1461387a576040805160e560020a62461bcd02815260206004820152602c60248201527f736574746c655468726561643a2054687265616420737461747573206d75737460448201527f20626520536574746c696e670000000000000000000000000000000000000000606482015290519081900360840190fd5b600182015487116138fb576040805160e560020a62461bcd02815260206004820152603360248201527f736574746c655468726561643a2053657175656e6365206d757374206265206860448201527f6967686572207468616e206f6e2d636861696e00000000000000000000000000606482015290519081900360840190fd5b600682015461390f90600484016000610881565b60408501516139209086600061089f565b1461399b576040805160e560020a62461bcd02815260206004820152603360248201527f736574746c655468726561643a205765692062616c616e636573206d7573742060448201527f657175616c20696e697469616c20737461746500000000000000000000000000606482015290519081900360840190fd5b60078201546139af90600484016001610881565b60608501516139c09086600161089f565b14613a3b576040805160e560020a62461bcd02815260206004820152603560248201527f736574746c655468726561643a20546f6b656e2062616c616e636573206d757360448201527f7420657175616c20696e697469616c2073746174650000000000000000000000606482015290519081900360840190fd5b6006820154602085015110801590613a5b57506007820154606085015110155b1515613ad7576040805160e560020a62461bcd02815260206004820152602481018290527f736574746c655468726561643a2053746174652075706461746573206d61792060448201527f6f6e6c7920696e63726561736520726563697069656e742062616c616e63652e606482015290519081900360840190fd5b60088201544210613b58576040805160e560020a62461bcd02815260206004820152602260248201527f736574746c655468726561643a2054696d656f757473206e6f7420657870697260448201527f6564000000000000000000000000000000000000000000000000000000000000606482015290519081900360840190fd5b878787878760006020020151886001602002015189600260200201518a6003602002015160405160200180896000191660001916815260200188815260200187600160a060020a0316600160a060020a03166c0100000000000000000000000002815260140186600160a060020a0316600160a060020a03166c01000000000000000000000000028152601401858152602001848152602001838152602001828152602001985050505050505050506040516020818303038152906040526040518082805190602001908083835b60208310613c455780518252601f199092019160209182019101613c26565b51815160209384036101000a6000190180199092169116179052604080519290940182900382207fdca9541900000000000000000000000000000000000000000000000000000000835260048301818152602484019586528a5160448501528a5191985073__ECTools_______________________________975063dca95419965088958b9550909390926064909101919085019080838360005b83811015613cf8578181015183820152602001613ce0565b50505050905090810190601f168015613d255780820380516001836020036101000a031916815260200191505b50935050505060206040518083038186803b158015613d4357600080fd5b505af4158015613d57573d6000803e3d6000fd5b505050506040513d6020811015613d6d57600080fd5b50516002830154600160a060020a03908116911614613dfc576040805160e560020a62461bcd02815260206004820152602760248201527f736574746c655468726561643a2050617274792041207369676e61747572652060448201527f696e76616c696400000000000000000000000000000000000000000000000000606482015290519081900360840190fd5b600182810188905584516004840155602080860151600685015560408087015160058601556060870151600786015560008c815292909152902060080154613e45904290613efb565b6008830181905584516020808701516040808901516060808b015183518f8152958601969096528483019390935291830191909152608082019290925260a08101929092525189918b917fe96d9d2080d8a3d55fd634009f4c8c9a3a9893124aab9efc9e79e178611ffcc39181900360c00190a3505050505050505050565b60408051808201909152600581527f302e302e31000000000000000000000000000000000000000000000000000000602082015281565b600082820183811015613f0d57600080fd5b9392505050565b6005860154845160609160009111613f9c576040805160e560020a62461bcd02815260206004820152603f60248201527f636865636b706f696e744368616e6e656c3a2053657175656e6365206d75737460448201527f20626520686967686572206f72207a65726f2d73746174652075706461746500606482015290519081900360840190fd5b6000896003811115613faa57fe5b1415613feb5760408051808201909152600a81527f434845434b504f494e5400000000000000000000000000000000000000000000602082015291506140d9565b6001896003811115613ff957fe5b141561403a5760408051808201909152600781527f4445504f53495400000000000000000000000000000000000000000000000000602082015291506140d9565b600289600381111561404857fe5b14156140895760408051808201909152600881527f5749544844524157000000000000000000000000000000000000000000000000602082015291506140d9565b6040805160e560020a62461bcd02815260206004820152601760248201527f496e76616c696420636865636b706f696e742074797065000000000000000000604482015290519081900360640190fd5b8682876000602002015188600160200201518b546003548a91600160a060020a03610100909104811691168c600260200201518d600360200201518e600460200201518f60056020020151604051602001808c600019166000191681526020018b805190602001908083835b602083106141645780518252601f199092019160209182019101614145565b51815160209384036101000a600019018019909216911617905292019b8c52508a810199909952506040808a0197909752600160a060020a039586166c0100000000000000000000000090810260608b0152949095169093026074880152608887019190915260a886015260c885015260e8808501919091528151808503909101815261010890930190819052825192945092508291908401908083835b602083106142215780518252601f199092019160209182019101614202565b518151602093840361010090810a6000190180199093169290911691909117909152604080519390950183900383208f547fdca9541900000000000000000000000000000000000000000000000000000000855260048501828152602486019788528d5160448701528d51929a50929004600160a060020a0316975073__ECTools_______________________________965063dca95419958995508c9492939092606401919085019080838360005b838110156142e95781810151838201526020016142d1565b50505050905090810190601f1680156143165780820380516001836020036101000a031916815260200191505b50935050505060206040518083038186803b15801561433457600080fd5b505af4158015614348573d6000803e3d6000fd5b505050506040513d602081101561435e57600080fd5b5051600160a060020a0316146143e4576040805160e560020a62461bcd02815260206004820152602c60248201527f636865636b706f696e744368616e6e656c3a2050617274792041207369676e6160448201527f7475726520696e76616c69640000000000000000000000000000000000000000606482015290519081900360840190fd5b600354604080517fdca954190000000000000000000000000000000000000000000000000000000081526004810184815260248201928352865160448301528651600160a060020a039094169373__ECTools_______________________________9363dca954199387938a9390929160640190602085019080838360005b8381101561447b578181015183820152602001614463565b50505050905090810190601f1680156144a85780820380516001836020036101000a031916815260200191505b50935050505060206040518083038186803b1580156144c657600080fd5b505af41580156144da573d6000803e3d6000fd5b505050506040513d60208110156144f057600080fd5b5051600160a060020a031614614576576040805160e560020a62461bcd02815260206004820152602c60248201527f636865636b706f696e744368616e6e656c3a2050617274792049207369676e6160448201527f7475726520696e76616c69640000000000000000000000000000000000000000606482015290519081900360840190fd5b50508351600587015550506020820151600785015560408201516001850155606082015160038501556080820151600285015560a09091015160048401556006909201919091555050565b600080838311156145d157600080fd5b5050900390565b6000838160405b85518111614703578581015191508183101561467a57604080516020808201869052818301859052825180830384018152606090920192839052815191929182918401908083835b602083106146465780518252601f199092019160209182019101614627565b6001836020036101000a038019825116818451168082178552505050505050905001915050604051809103902092506146fb565b604080516020808201859052818301869052825180830384018152606090920192839052815191929182918401908083835b602083106146cb5780518252601f1990920191602091820191016146ac565b6001836020036101000a038019825116818451168082178552505050505050905001915050604051809103902092505b6020016145df565b5050919091149392505050565b826002810192821561473e579160200282015b8281111561473e578251825591602001919060010190614723565b5061474a929150614769565b5090565b60408051808201825290600290829080388339509192915050565b61478391905b8082111561474a576000815560010161476f565b905600a165627a7a72305820b4c8bf95097e13043e31531fdcc34e8f1d3a97586a81aad618744210b829eba40029",
  "source": "pragma solidity ^0.4.24;\n\nimport \"./lib/ECTools.sol\";\nimport \"./lib/token/HumanStandardToken.sol\";\nimport \"./lib/SafeMath.sol\";\n\n/// @title Connext Channel Manager - A layer2 micropayment network\n\ncontract ChannelManager {\n    using SafeMath for uint256;\n\n    string public constant NAME = \"Channel Manager\";\n    string public constant VERSION = \"0.0.1\";\n\n    event DidChannelOpen (\n        bytes32 indexed channelId,\n        address indexed partyA,\n        uint256 weiBalanceA,\n        uint256 tokenBalanceA,\n        uint256 openTimeout\n    );\n\n    event DidChannelJoin (\n        bytes32 indexed channelId,\n        uint256 weiBalanceI,\n        uint256 tokenBalanceI\n    );\n\n    event DidChannelDeposit (\n        bytes32 indexed channelId,\n        address indexed recipient,\n        uint256 weiDeposit,\n        uint256 tokenDeposit\n    );\n\n    event DidChannelUpdateState (\n        bytes32 indexed channelId,\n        uint256 sequence, \n        uint256 weiBalanceA,\n        uint256 tokenBalanceA,\n        uint256 weiBalanceI,\n        uint256 tokenBalanceI,\n        uint256 numOpenThread, \n        bytes32 threadRoot,\n        uint256 updateTimeout\n    );\n\n    event DidChannelClose (\n        bytes32 indexed channelId,\n        uint256 sequence,\n        uint256 weiBalanceA,\n        uint256 tokenBalanceA,\n        uint256 weiBalanceI,\n        uint256 tokenBalanceI\n    );\n\n    event DidChannelStartSettlement (\n        bytes32 indexed channelId, \n        uint256 sequence,\n        uint256 weiBalanceA,\n        uint256 tokenBalanceA,\n        uint256 weiBalanceI,\n        uint256 tokenBalanceI,\n        uint256 numOpenThread, \n        bytes32 threadRoot,\n        uint256 updateTimeout\n    );\n\n    event DidThreadInit (\n        bytes32 indexed channelId, \n        bytes32 indexed threadId, \n        bytes proof, \n        uint256 sequence, \n        address partyA, \n        address partyB, \n        uint256 weiBalanceA,\n        uint256 tokenBalanceA\n    );\n\n    event DidThreadSettle (\n        bytes32 indexed channelId, \n        bytes32 indexed threadId,\n        uint256 sequence, \n        uint256 weiBalanceA,\n        uint256 tokenBalanceA,\n        uint256 weiBalanceI,\n        uint256 tokenBalanceI,\n        uint256 updateTimeout\n    );\n\n    event DidThreadClose(\n        bytes32 indexed channelId, \n        bytes32 indexed threadId, \n        uint256 weiBalanceA,\n        uint256 tokenBalanceA,\n        uint256 weiBalanceI,\n        uint256 tokenBalanceI\n    );\n\n    enum ChannelStatus {\n        Nonexistent,\n        Opened,\n        Joined,\n        Settling,\n        Settled\n    }\n\n    struct Channel {\n        ChannelStatus status;\n        address partyA;\n        uint256[2] balancesA; // [wei, token]\n        uint256[2] balancesI; // [wei, token]\n        uint256 sequence;\n        bytes32 threadRootHash;\n        uint256 numOpenThread;\n        uint256 confirmTime;\n        uint256 openTimeout;\n        uint256 updateTimeout;\n    }\n\n    enum ThreadStatus {\n        Nonexistent,\n        Settling,\n        Settled\n    }\n\n    struct Thread {\n        ThreadStatus status;\n        uint256 sequence;\n        address partyA; \n        address partyB;\n        uint256[2] balancesA; // [wei, token]\n        uint256[2] balancesB; // [wei, token]\n        uint256 updateTimeout;\n    }\n\n    enum CheckpointType {\n        Checkpoint,\n        Deposit,\n        Withdraw,\n        Close\n    }\n\n    mapping(bytes32 => Thread) public threads;\n    mapping(bytes32 => Channel) public channels;\n\n\n    // globals\n    HumanStandardToken public approvedToken;\n    address public hubAddress;\n\n    constructor(address _tokenAddress, address _hubAddress) public {\n        approvedToken = HumanStandardToken(_tokenAddress);\n        hubAddress = _hubAddress;\n    }\n\n    function createChannel(\n        bytes32 channelId,\n        uint256 confirmTime, // TODO can we hardcode this too?\n        uint256 tokenBalance\n    )\n        public\n        payable \n    {\n        require(channels[channelId].status == ChannelStatus.Nonexistent, \"createChannel: Channel already exists\");\n        require(msg.sender != hubAddress, \"createChannel: Cannot create channel with yourself\");\n\n        // Set initial ledger channel state\n        // Alice must execute this and we assume the initial state \n        // to be signed from this requirement\n        Channel storage channel = channels[channelId];\n\n        channel.status = ChannelStatus.Opened;\n        channel.partyA = msg.sender; // partyA\n        channel.sequence = 0;\n        channel.confirmTime = confirmTime;\n        channel.openTimeout = now.add(confirmTime);\n\n        channel.balancesA[0] = msg.value; // wei deposit\n        require(approvedToken.transferFrom(msg.sender, this, tokenBalance), \"createChannel: Token transfer failure\");\n        channel.balancesA[1] = tokenBalance; // token deposit\n\n        emit DidChannelOpen(\n            channelId, \n            channel.partyA, // partyA\n            channel.balancesA[0], // weiBalanceA\n            channel.balancesA[1], // tokenBalanceA\n            channel.openTimeout\n        );\n    }\n\n    function channelOpenTimeout(bytes32 channelId) public {\n        Channel storage channel = channels[channelId];\n\n        require(msg.sender == channel.partyA, \"channelOpenTimeout: Request not sent by partyA\");\n        require(channel.status == ChannelStatus.Opened, \"channelOpenTimeout: Channel status must be Opened\");\n        require(now > channel.openTimeout, \"channelOpenTimeout: Channel openTimeout has not expired\");\n\n        // reentrancy protection\n        channel.status = ChannelStatus.Settled;\n        uint256 weiBalanceA = channel.balancesA[0];\n        uint256 tokenBalanceA = channel.balancesA[1];\n\n        channel.balancesA[0] = 0; // wei\n        channel.balancesA[1] = 0; // token\n        channel.balancesI[0] = 0; // wei\n        channel.balancesI[1] = 0; // token\n\n        channel.partyA.transfer(weiBalanceA);\n        require(\n            approvedToken.transfer(channel.partyA, tokenBalanceA),\n            \"channelOpenTimeout: Token transfer failure\"\n        );\n\n        emit DidChannelClose(\n            channelId,\n            0, // sequence\n            weiBalanceA,\n            tokenBalanceA,\n            0, // weiBalanceI\n            0 // tokenBalanceI\n        );\n    }\n\n    function joinChannel(bytes32 channelId, uint256 tokenBalance) public payable {\n        Channel storage channel = channels[channelId];\n\n        require(channel.status == ChannelStatus.Opened, \"joinChannel: Channel status must be Opened\");\n        require(msg.sender == hubAddress, \"joinChannel: Channel can only be joined by counterparty\");\n\n        channel.status = ChannelStatus.Joined;\n\n        channel.balancesI[0] = msg.value; // wei\n        require(\n            approvedToken.transferFrom(msg.sender, this, tokenBalance),\n            \"joinChannel: token transfer failure\"\n        );\n        channel.balancesI[1] = tokenBalance; // token\n\n        emit DidChannelJoin(\n            channelId,\n            channel.balancesI[0], // wei\n            channel.balancesI[1] // token\n        );\n    }\n\n    function deposit(\n        bytes32 channelId,\n        uint256 tokenDeposit,\n        uint256 sequence,\n        uint256 numOpenThread,\n        bytes32 threadRootHash,\n        string sigA,\n        string sigI\n    )\n        public \n        payable \n    {\n        Channel storage channel = channels[channelId];\n\n        require(channel.status == ChannelStatus.Joined, \"deposit: Channel status must be Joined\");\n        require(\n            msg.sender == channel.partyA || msg.sender == hubAddress,\n            \"deposit: Sender must be channel member\"\n        );\n\n        uint256[2] memory balancesA;\n        uint256[2] memory balancesI;\n        if (msg.sender == channel.partyA) {\n            balancesA[0] = channel.balancesA[0].add(msg.value); // wei\n            balancesA[1] = channel.balancesA[1].add(tokenDeposit); // token\n        } else if (msg.sender == hubAddress) {\n            balancesI[0] = channel.balancesI[0].add(msg.value); // wei\n            balancesI[1] = channel.balancesI[1].add(tokenDeposit); // token\n        }\n\n        // checkpoint on chain\n        _checkpointChannel(\n            CheckpointType.Deposit,\n            channel,\n            channelId,\n            [sequence, numOpenThread, balancesA[0], balancesI[0], balancesA[1], balancesI[1]],\n            threadRootHash,\n            sigA,\n            sigI\n        );\n\n        require(approvedToken.transferFrom(msg.sender, this, tokenDeposit), \"deposit: token transfer failure\");\n\n        emit DidChannelDeposit(\n            channelId,\n            msg.sender,\n            msg.value, // weiDeposit\n            tokenDeposit\n        );\n    }\n\n    function consensusCloseChannel(\n        bytes32 channelId, \n        uint256 sequence, \n        uint256[4] balances, // [weiBalanceA, weiBalanceI, tokenBalanceA, tokenBalanceI]\n        string sigA, \n        string sigI\n    ) \n        public \n    {\n        Channel storage channel = channels[channelId];\n\n        require(channel.status == ChannelStatus.Joined, \"consensusCloseChannel: Channel status must be Joined\");\n        // everything that is on chain must be accounted for in passed in balances\n        require(\n            balances[0].add(balances[1]) == channel.balancesA[0].add(channel.balancesI[0]),\n            \"consensusCloseChannel: On-chain wei balances not equal to provided balances\"\n        );\n        require(\n            balances[2].add(balances[3]) == channel.balancesA[1].add(channel.balancesI[1]),\n            \"consensusCloseChannel: On-chain token balances not equal to provided balances\"\n        );\n        // don't need to check sequence here, don't sign anything else after you have signed this\n\n        bytes32 fingerprint = keccak256(\n            abi.encodePacked(\n                channelId,\n                \"CLOSE\", // isClose\n                sequence,\n                uint256(0), // numOpenThread\n                bytes32(0x0), // threadRootHash\n                channel.partyA,\n                hubAddress,\n                balances[0],\n                balances[1],\n                balances[2],\n                balances[3]\n            )\n        );\n\n        require(\n            ECTools.recoverSigner(fingerprint, sigA) == channel.partyA,\n            \"consensusCloseChannel: Party A signature invalid\"\n        );\n        require(\n            ECTools.recoverSigner(fingerprint, sigI) == hubAddress,\n            \"consensusCloseChannel: Party I signature invalid\"\n        );\n\n        // this will prevent reentrancy\n        channel.status = ChannelStatus.Settled;\n\n        channel.balancesA[0] = 0; // wei\n        channel.balancesA[1] = 0; // token\n        channel.balancesI[0] = 0; // wei\n        channel.balancesI[1] = 0; // token\n\n        channel.partyA.transfer(balances[0]); // weiBalanceA\n        hubAddress.transfer(balances[1]); // weiBalanceI\n\n        require(\n            approvedToken.transfer(channel.partyA, balances[2]),\n            \"consensusCloseChannel: Token transfer failure\"\n        ); // tokenBalanceA\n        require(\n            approvedToken.transfer(hubAddress, balances[3]),\n            \"consensusCloseChannel: Token transfer failure\"\n        ); // tokenBalanceI\n\n        emit DidChannelClose(\n            channelId,\n            sequence,\n            balances[0], // weiBalanceA\n            balances[1], // weiBalanceI\n            balances[2], // tokenBalanceA\n            balances[3] // tokenBalanceI\n        );\n    }\n\n    function checkpointChannel(\n        bytes32 channelId, \n        uint256[6] updateParams, // [sequence, numOpenThread, weiBalanceA, weiBalanceI, tokenBalanceA, tokenBalanceI]\n        bytes32 threadRootHash, \n        string sigA, \n        string sigI\n    ) \n        public\n    {\n        Channel storage channel = channels[channelId];\n        require(channel.status == ChannelStatus.Joined, \"checkpointChannel: Channel status must be Joined or Settling\");\n        // require for all checkpoints\n        require(\n            updateParams[0] > channel.sequence,\n            \"checkpointChannel: Sequence must be higher or zero-state update\"\n        );\n        // input balances can be less than on-chain balances because of balance bonded in threads\n        require(\n            updateParams[2].add(updateParams[3]) <= channel.balancesA[0].add(channel.balancesI[0]),\n            \"checkpointChannel: On-chain eth balances must be higher than provided balances\"\n        );\n        require(\n            updateParams[4].add(updateParams[5]) <= channel.balancesA[1].add(channel.balancesI[1]),\n            \"checkpointChannel: On-chain token balances must be higher than provided balances\"\n        );\n\n        _checkpointChannel(\n            CheckpointType.Checkpoint, \n            channel, \n            channelId, \n            updateParams, \n            threadRootHash, \n            sigA, \n            sigI\n        );\n\n        emit DidChannelUpdateState(\n            channelId,\n            updateParams[0], // sequence\n            updateParams[2], // weiBalanceA\n            updateParams[3], // weiBalanceI\n            updateParams[4], // tokenBalanceA\n            updateParams[5], // tokenBalanceI\n            updateParams[1], // numOpenThread\n            threadRootHash,\n            channel.updateTimeout\n        );\n    }\n\n    // BYZANTINE FUNCTIONS\n    function startChannelSettlement(bytes32 channelId) public {\n        Channel storage channel = channels[channelId];\n\n        require(msg.sender == channel.partyA || msg.sender == hubAddress, \"startChannelSettlement: Sender must be part of channel\");\n        require(\n            channel.status == ChannelStatus.Joined,\n            \"startChannelSettlement: Channel status must be Joined\"\n        );\n\n        channel.status = ChannelStatus.Settling;\n        channel.updateTimeout = now.add(channel.confirmTime);\n\n        emit DidChannelStartSettlement(\n            channelId,\n            channel.sequence, // sequence\n            channel.balancesA[0], // weiBalanceA\n            channel.balancesI[0], // weiBalanceI\n            channel.balancesA[1], // tokenBalanceA\n            channel.balancesI[1], // tokenBalanceI\n            channel.numOpenThread, // numOpenThread\n            channel.threadRootHash,\n            channel.updateTimeout\n        );\n    }\n\n    function checkpointChannelDispute(\n        bytes32 channelId, \n        uint256[6] updateParams, // [sequence, numOpenThread, weiBalanceA, weiBalanceI, tokenBalanceA, tokenBalanceI]\n        bytes32 threadRootHash, \n        string sigA, \n        string sigI\n    ) \n        public\n    {\n        Channel storage channel = channels[channelId];\n        require(channel.status == ChannelStatus.Settling, \"checkpointChannel: Channel status must be Joined or Settling\");\n        require(now < channel.updateTimeout);\n        // input balances can be less than on-chain balances because of balance bonded in threads\n        require(\n            updateParams[2].add(updateParams[3]) <= channel.balancesA[0].add(channel.balancesI[0]),\n            \"checkpointChannel: On-chain eth balances must be higher than provided balances\"\n        );\n        require(\n            updateParams[4].add(updateParams[5]) <= channel.balancesA[1].add(channel.balancesI[1]),\n            \"checkpointChannel: On-chain token balances must be higher than provided balances\"\n        );\n\n        _checkpointChannel(\n            CheckpointType.Checkpoint, \n            channel, \n            channelId, \n            updateParams, \n            threadRootHash, \n            sigA, \n            sigI\n        );\n        channel.updateTimeout = now.add(channel.confirmTime);\n\n        emit DidChannelUpdateState(\n            channelId,\n            updateParams[0], // sequence\n            updateParams[2], // weiBalanceA\n            updateParams[3], // weiBalanceI\n            updateParams[4], // tokenBalanceA\n            updateParams[5], // tokenBalanceI\n            updateParams[1], // numOpenThread\n            threadRootHash,\n            channel.updateTimeout\n        );\n    }\n\n    // supply initial state of thread to \"prime\" the force push game \n    // TODO: combine with settleThread\n    function initThread(\n        bytes32 channelId, \n        bytes32 threadId, \n        bytes proof,\n        address partyA, \n        address partyB, \n        uint256[2] balances, // [weiBalanceA, tokenBalanceA]\n        string sigA\n    ) \n        public \n    {\n        require(msg.sender == partyA || msg.sender == partyB || msg.sender == hubAddress, \"initThread: Sender must be part of thread\");\n        require(channels[channelId].status == ChannelStatus.Settling, \"initThread: Channel status must be Settling\");\n        require(threads[threadId].status == ThreadStatus.Nonexistent, \"initThread: Thread exists\");\n        require(now > channels[channelId].updateTimeout, \"initThread: Update channel timeout not expired\");\n        // dont need to check parties because root hash contains the initial state and was verified by hub\n\n        bytes32 initState = keccak256(\n            abi.encodePacked(\n                threadId,\n                uint256(0), // sequence\n                partyA,\n                partyB,\n                balances[0], // weiBalanceA\n                uint256(0), // weiBalanceI\n                balances[1], // tokenBalanceA\n                uint256(0) // tokenBalanceA\n            )\n        );\n\n        // Make sure Alice has signed initial thread state (A/B in oldState)\n        require(ECTools.recoverSigner(initState, sigA) == partyA, \"initThread: Party A signature invalid\");\n\n        // Check the initState is in the root hash\n        require(\n            _isContained(initState, proof, channels[channelId].threadRootHash) == true,\n            \"initThread: Old state is not contained in root hash\"\n        );\n\n        threads[threadId] = Thread({\n            status: ThreadStatus.Settling,\n            partyA: partyA,\n            partyB: partyB,\n            sequence: 0,\n            balancesA: balances,\n            balancesB: [uint256(0), uint256(0)],\n            updateTimeout: now.add(channels[channelId].confirmTime)\n        });\n\n        emit DidThreadInit(\n            channelId,\n            threadId, \n            proof, \n            uint256(0), // sequence\n            partyA,\n            partyB,\n            balances[0], // weiBalanceA\n            balances[1] // tokenBalanceA\n        );\n    }\n\n    function settleThread(\n        bytes32 channelId, \n        bytes32 threadId, \n        uint256 sequence, \n        address partyA, \n        address partyB,\n        uint256[4] balances, // [weiBalanceA, weiBalanceI, tokenBalanceA, tokenBalanceI]\n        string sigA\n    ) \n        public \n    {\n        Thread storage thread = threads[threadId];\n\n        require(\n            msg.sender == partyA || msg.sender == partyB || msg.sender == hubAddress,\n            \"settleThread: Sender must be part of thread\"\n        );\n        require(channels[channelId].status == ChannelStatus.Settling, \"settleThread: Channel status must be Settling\");\n        // init thread must have been called before this\n        require(thread.status == ThreadStatus.Settling, \"settleThread: Thread status must be Settling\");\n\n        // TODO: Can remove this once we implement logic to only allow one settle call\n        require(sequence > thread.sequence, \"settleThread: Sequence must be higher than on-chain\");\n        require(\n            balances[0].add(balances[2]) == thread.balancesA[0].add(thread.balancesB[0]),\n            \"settleThread: Wei balances must equal initial state\"\n        );\n        require(\n            balances[1].add(balances[3]) == thread.balancesA[1].add(thread.balancesB[1]),\n            \"settleThread: Token balances must equal initial state\"\n        );\n        require(\n            balances[1] >= thread.balancesB[0] && // wei\n            balances[3] >= thread.balancesB[1], // token\n            \"settleThread: State updates may only increase recipient balance.\"\n        );\n        require(now < thread.updateTimeout, \"settleThread: Timeouts not expired\");\n\n        bytes32 fingerprint = keccak256(\n            abi.encodePacked(\n                threadId, \n                sequence, \n                partyA, \n                partyB,\n                balances[0], // weiBalanceA\n                balances[1], // weiBalanceI\n                balances[2], // tokenBalanceA\n                balances[3] // tokenBalanceI\n            )\n        );\n\n        require(thread.partyA == ECTools.recoverSigner(fingerprint, sigA), \"settleThread: Party A signature invalid\");\n\n        // TODO: remove this, only can call this function once\n        thread.sequence = sequence;\n\n        thread.balancesA[0] = balances[0]; // wei\n        thread.balancesB[0] = balances[1]; // wei\n        thread.balancesA[1] = balances[2]; // token\n        thread.balancesB[1] = balances[3]; // token\n\n        // TODO: remove this, only can call this function once\n        thread.updateTimeout = now.add(channels[channelId].confirmTime);\n\n        emit DidThreadSettle(\n            channelId,\n            threadId,\n            sequence,\n            balances[0], // weiBalanceA\n            balances[1], // weiBalanceB\n            balances[2], // tokenBalanceA\n            balances[3], // tokenBalanceB\n            thread.updateTimeout\n        );\n    }\n\n    function closeThread(bytes32 channelId, bytes32 threadId) public {\n        Channel storage channel = channels[channelId];\n        Thread storage thread = threads[threadId];\n\n        require(channel.status == ChannelStatus.Settling, \"closeThread: Channel status must be Settling\");\n        require(thread.status == ThreadStatus.Settling, \"closeThread: Virtual channel status must be Settling\");\n        require(now > thread.updateTimeout, \"closeThread: Update VC timeout has not expired.\");\n\n        // reduce the number of open virtual channels stored on LC\n        channel.numOpenThread = channel.numOpenThread.sub(1);\n        // close vc \n        thread.status = ThreadStatus.Settled;\n\n        // re-introduce the balances back into the LC state from the settled VC\n        // decide if this lc is alice or bob in the vc\n        if(thread.partyA == channel.partyA) {\n            // channel A to I: partyA += threadBalanceA, partyI += threadBalanceB\n            // wei\n            channel.balancesA[0] = channel.balancesA[0].add(thread.balancesA[0]);\n            channel.balancesI[0] = channel.balancesI[0].add(thread.balancesB[0]);\n\n            // token\n            channel.balancesA[1] = channel.balancesA[1].add(thread.balancesA[1]);\n            channel.balancesI[1] = channel.balancesI[1].add(thread.balancesB[1]);\n        } else if (thread.partyB == hubAddress) {\n            // channel I to B: partyI += threadBalanceA, partyA += threadBalanceB\n            // wei\n            channel.balancesA[0] = channel.balancesA[0].add(thread.balancesB[0]);\n            channel.balancesI[0] = channel.balancesI[0].add(thread.balancesA[0]);\n\n            // token\n            channel.balancesA[1] = channel.balancesA[1].add(thread.balancesB[1]);\n            channel.balancesI[1] = channel.balancesI[1].add(thread.balancesA[1]);\n        }\n\n        emit DidThreadClose(\n            channelId,\n            threadId,\n            thread.balancesA[0], // wei\n            thread.balancesA[1], // token\n            thread.balancesB[0], // wei\n            thread.balancesB[1] // token\n        );\n    }\n\n    // TODO: allow either LC end-user to nullify the settled LC state and return to off-chain\n    function byzantineCloseChannel(bytes32 channelId) public {\n        Channel storage channel = channels[channelId];\n\n        // check settlement flag\n        require(channel.status == ChannelStatus.Settling, \"byzantineCloseChannel: Channel status must be Settling\");\n        require(channel.numOpenThread == 0, \"byzantineCloseChannel: Open threads must be 0\");\n        require(now > channel.updateTimeout, \"byzantineCloseChannel: Channel timeout not over.\");\n\n        // reentrancy\n        channel.status = ChannelStatus.Settled;\n\n        uint256 weibalanceA = channel.balancesA[0];\n        uint256 weibalanceI = channel.balancesI[0];\n        uint256 tokenbalanceA = channel.balancesA[0];\n        uint256 tokenbalanceI = channel.balancesI[1];\n\n        channel.balancesA[0] = 0;\n        channel.balancesA[1] = 0;\n        channel.balancesI[0] = 0;\n        channel.balancesI[1] = 0;\n\n        channel.partyA.transfer(weibalanceA);\n        hubAddress.transfer(weibalanceI);\n\n        require(\n            approvedToken.transfer(channel.partyA, tokenbalanceA),\n            \"byzantineCloseChannel: token transfer failure\"\n        );\n        require(\n            approvedToken.transfer(hubAddress, tokenbalanceI),\n            \"byzantineCloseChannel: token transfer failure\"\n        );\n\n        emit DidChannelClose(\n            channelId,\n            channel.sequence,\n            weibalanceA,\n            weibalanceI,\n            tokenbalanceA,\n            tokenbalanceI\n        );\n    }\n\n    function _checkpointChannel(\n        CheckpointType checkpointType,\n        Channel storage channel,\n        bytes32 channelId,\n        uint256[6] updateParams, // [sequence, numOpenThread, weiBalanceA, weiBalanceI, tokenBalanceA, tokenBalanceI]\n        bytes32 threadRootHash, \n        string sigA, \n        string sigI\n    )\n        internal\n    {\n        require(\n            updateParams[0] > channel.sequence,\n            \"checkpointChannel: Sequence must be higher or zero-state update\"\n        );\n\n        string memory flag;\n        if (checkpointType == CheckpointType.Checkpoint) {\n            flag = \"CHECKPOINT\";\n        } else if (checkpointType == CheckpointType.Deposit) {\n            flag = \"DEPOSIT\";\n        } else if (checkpointType == CheckpointType.Withdraw) {\n            flag = \"WITHDRAW\";\n        } else {\n            revert(\"Invalid checkpoint type\");\n        }\n\n        bytes32 fingerprint = keccak256(\n            abi.encodePacked(\n                channelId,\n                flag,\n                updateParams[0], // sequence\n                updateParams[1], // numOpenThread\n                threadRootHash,\n                channel.partyA,\n                hubAddress, // partyI\n                updateParams[2], // weiBalanceA\n                updateParams[3], // weiBalanceI\n                updateParams[4], // tokenBalanceA\n                updateParams[5] // tokenBalanceI\n            )\n        );\n\n        require(\n            ECTools.recoverSigner(fingerprint, sigA) == channel.partyA,\n            \"checkpointChannel: Party A signature invalid\"\n        );\n        require(\n            ECTools.recoverSigner(fingerprint, sigI) == hubAddress,\n            \"checkpointChannel: Party I signature invalid\"\n        );\n\n        // update chain state\n        channel.sequence = updateParams[0];\n        channel.numOpenThread = updateParams[1];\n        channel.balancesA[0] = updateParams[2]; // weiBalanceA\n        channel.balancesI[0] = updateParams[3]; // weiBalanceI\n        channel.balancesA[1] = updateParams[4]; // tokenBalanceA\n        channel.balancesI[1] = updateParams[5]; // tokenBalanceI\n        channel.threadRootHash = threadRootHash;\n    }\n\n    function _isContained(bytes32 _hash, bytes _proof, bytes32 _root) internal pure returns (bool) {\n        bytes32 cursor = _hash;\n        bytes32 proofElem;\n\n        for (uint256 i = 64; i <= _proof.length; i += 32) {\n            assembly { proofElem := mload(add(_proof, i)) }\n\n            if (cursor < proofElem) {\n                cursor = keccak256(abi.encodePacked(cursor, proofElem));\n            } else {\n                cursor = keccak256(abi.encodePacked(proofElem, cursor));\n            }\n        }\n\n        return cursor == _root;\n    }\n}",
  "sourcePath": "/Users/rahul/Desktop/connext/connext-kernle/packages/contracts/contracts/ChannelManager.sol",
  "compiler": {
    "name": "solc",
    "version": "0.4.24+commit.e67f0147.Emscripten.clang"
  },
  "schemaVersion": "3.0.0-beta.0",
  "updatedAt": "2018-10-12T22:50:11.060Z"
}