{
  "contractName": "LedgerChannel",
  "abi": [
    {
      "constant": true,
      "inputs": [
        {
          "name": "",
          "type": "bytes32"
        }
      ],
      "name": "virtualChannels",
      "outputs": [
        {
          "name": "status",
          "type": "uint8"
        },
        {
          "name": "sequence",
          "type": "uint256"
        },
        {
          "name": "updateVCtimeout",
          "type": "uint256"
        },
        {
          "name": "partyA",
          "type": "address"
        },
        {
          "name": "partyB",
          "type": "address"
        },
        {
          "name": "token",
          "type": "address"
        }
      ],
      "payable": false,
      "stateMutability": "view",
      "type": "function"
    },
    {
      "constant": true,
      "inputs": [],
      "name": "numChannels",
      "outputs": [
        {
          "name": "",
          "type": "uint256"
        }
      ],
      "payable": false,
      "stateMutability": "view",
      "type": "function"
    },
    {
      "constant": true,
      "inputs": [],
      "name": "NAME",
      "outputs": [
        {
          "name": "",
          "type": "string"
        }
      ],
      "payable": false,
      "stateMutability": "view",
      "type": "function"
    },
    {
      "constant": true,
      "inputs": [],
      "name": "approvedToken",
      "outputs": [
        {
          "name": "",
          "type": "address"
        }
      ],
      "payable": false,
      "stateMutability": "view",
      "type": "function"
    },
    {
      "constant": true,
      "inputs": [
        {
          "name": "",
          "type": "bytes32"
        }
      ],
      "name": "Channels",
      "outputs": [
        {
          "name": "sequence",
          "type": "uint256"
        },
        {
          "name": "confirmTime",
          "type": "uint256"
        },
        {
          "name": "VCrootHash",
          "type": "bytes32"
        },
        {
          "name": "LCopenTimeout",
          "type": "uint256"
        },
        {
          "name": "updateLCtimeout",
          "type": "uint256"
        },
        {
          "name": "status",
          "type": "uint8"
        },
        {
          "name": "numOpenVC",
          "type": "uint256"
        },
        {
          "name": "token",
          "type": "address"
        }
      ],
      "payable": false,
      "stateMutability": "view",
      "type": "function"
    },
    {
      "constant": true,
      "inputs": [],
      "name": "hubAddress",
      "outputs": [
        {
          "name": "",
          "type": "address"
        }
      ],
      "payable": false,
      "stateMutability": "view",
      "type": "function"
    },
    {
      "constant": true,
      "inputs": [],
      "name": "VERSION",
      "outputs": [
        {
          "name": "",
          "type": "string"
        }
      ],
      "payable": false,
      "stateMutability": "view",
      "type": "function"
    },
    {
      "inputs": [
        {
          "name": "_token",
          "type": "address"
        },
        {
          "name": "_hubAddress",
          "type": "address"
        }
      ],
      "payable": false,
      "stateMutability": "nonpayable",
      "type": "constructor"
    },
    {
      "anonymous": false,
      "inputs": [
        {
          "indexed": true,
          "name": "channelId",
          "type": "bytes32"
        },
        {
          "indexed": true,
          "name": "partyA",
          "type": "address"
        },
        {
          "indexed": true,
          "name": "partyI",
          "type": "address"
        },
        {
          "indexed": false,
          "name": "ethBalanceA",
          "type": "uint256"
        },
        {
          "indexed": false,
          "name": "token",
          "type": "address"
        },
        {
          "indexed": false,
          "name": "tokenBalanceA",
          "type": "uint256"
        },
        {
          "indexed": false,
          "name": "LCopenTimeout",
          "type": "uint256"
        }
      ],
      "name": "DidLCOpen",
      "type": "event"
    },
    {
      "anonymous": false,
      "inputs": [
        {
          "indexed": true,
          "name": "channelId",
          "type": "bytes32"
        },
        {
          "indexed": false,
          "name": "ethBalanceI",
          "type": "uint256"
        },
        {
          "indexed": false,
          "name": "tokenBalanceI",
          "type": "uint256"
        }
      ],
      "name": "DidLCJoin",
      "type": "event"
    },
    {
      "anonymous": false,
      "inputs": [
        {
          "indexed": true,
          "name": "channelId",
          "type": "bytes32"
        },
        {
          "indexed": true,
          "name": "recipient",
          "type": "address"
        },
        {
          "indexed": false,
          "name": "ethDeposit",
          "type": "uint256"
        },
        {
          "indexed": false,
          "name": "tokenDeposit",
          "type": "uint256"
        }
      ],
      "name": "DidLCDeposit",
      "type": "event"
    },
    {
      "anonymous": false,
      "inputs": [
        {
          "indexed": true,
          "name": "channelId",
          "type": "bytes32"
        },
        {
          "indexed": false,
          "name": "sequence",
          "type": "uint256"
        },
        {
          "indexed": false,
          "name": "numOpenVc",
          "type": "uint256"
        },
        {
          "indexed": false,
          "name": "ethBalanceA",
          "type": "uint256"
        },
        {
          "indexed": false,
          "name": "tokenBalanceA",
          "type": "uint256"
        },
        {
          "indexed": false,
          "name": "ethBalanceI",
          "type": "uint256"
        },
        {
          "indexed": false,
          "name": "tokenBalanceI",
          "type": "uint256"
        },
        {
          "indexed": false,
          "name": "vcRoot",
          "type": "bytes32"
        },
        {
          "indexed": false,
          "name": "updateLCtimeout",
          "type": "uint256"
        }
      ],
      "name": "DidLCUpdateState",
      "type": "event"
    },
    {
      "anonymous": false,
      "inputs": [
        {
          "indexed": true,
          "name": "channelId",
          "type": "bytes32"
        },
        {
          "indexed": false,
          "name": "sequence",
          "type": "uint256"
        },
        {
          "indexed": false,
          "name": "ethBalanceA",
          "type": "uint256"
        },
        {
          "indexed": false,
          "name": "tokenBalanceA",
          "type": "uint256"
        },
        {
          "indexed": false,
          "name": "ethBalanceI",
          "type": "uint256"
        },
        {
          "indexed": false,
          "name": "tokenBalanceI",
          "type": "uint256"
        }
      ],
      "name": "DidLCClose",
      "type": "event"
    },
    {
      "anonymous": false,
      "inputs": [
        {
          "indexed": true,
          "name": "lcId",
          "type": "bytes32"
        },
        {
          "indexed": true,
          "name": "vcId",
          "type": "bytes32"
        },
        {
          "indexed": false,
          "name": "proof",
          "type": "bytes"
        },
        {
          "indexed": false,
          "name": "sequence",
          "type": "uint256"
        },
        {
          "indexed": false,
          "name": "partyA",
          "type": "address"
        },
        {
          "indexed": false,
          "name": "partyB",
          "type": "address"
        },
        {
          "indexed": false,
          "name": "balanceA",
          "type": "uint256"
        },
        {
          "indexed": false,
          "name": "balanceB",
          "type": "uint256"
        }
      ],
      "name": "DidVCInit",
      "type": "event"
    },
    {
      "anonymous": false,
      "inputs": [
        {
          "indexed": true,
          "name": "lcId",
          "type": "bytes32"
        },
        {
          "indexed": true,
          "name": "vcId",
          "type": "bytes32"
        },
        {
          "indexed": false,
          "name": "updateSeq",
          "type": "uint256"
        },
        {
          "indexed": false,
          "name": "updateBalA",
          "type": "uint256"
        },
        {
          "indexed": false,
          "name": "updateBalB",
          "type": "uint256"
        },
        {
          "indexed": false,
          "name": "challenger",
          "type": "address"
        },
        {
          "indexed": false,
          "name": "updateVCtimeout",
          "type": "uint256"
        }
      ],
      "name": "DidVCSettle",
      "type": "event"
    },
    {
      "anonymous": false,
      "inputs": [
        {
          "indexed": true,
          "name": "lcId",
          "type": "bytes32"
        },
        {
          "indexed": true,
          "name": "vcId",
          "type": "bytes32"
        },
        {
          "indexed": false,
          "name": "balanceA",
          "type": "uint256"
        },
        {
          "indexed": false,
          "name": "balanceB",
          "type": "uint256"
        }
      ],
      "name": "DidVCClose",
      "type": "event"
    },
    {
      "constant": false,
      "inputs": [
        {
          "name": "_lcID",
          "type": "bytes32"
        },
        {
          "name": "_partyI",
          "type": "address"
        },
        {
          "name": "_confirmTime",
          "type": "uint256"
        },
        {
          "name": "_token",
          "type": "address"
        },
        {
          "name": "_balances",
          "type": "uint256[2]"
        }
      ],
      "name": "createChannel",
      "outputs": [],
      "payable": true,
      "stateMutability": "payable",
      "type": "function"
    },
    {
      "constant": false,
      "inputs": [
        {
          "name": "_lcID",
          "type": "bytes32"
        }
      ],
      "name": "LCOpenTimeout",
      "outputs": [],
      "payable": false,
      "stateMutability": "nonpayable",
      "type": "function"
    },
    {
      "constant": false,
      "inputs": [
        {
          "name": "_lcID",
          "type": "bytes32"
        },
        {
          "name": "_balances",
          "type": "uint256[2]"
        }
      ],
      "name": "joinChannel",
      "outputs": [],
      "payable": true,
      "stateMutability": "payable",
      "type": "function"
    },
    {
      "constant": false,
      "inputs": [
        {
          "name": "_lcID",
          "type": "bytes32"
        },
        {
          "name": "recipient",
          "type": "address"
        },
        {
          "name": "_balances",
          "type": "uint256[2]"
        }
      ],
      "name": "deposit",
      "outputs": [],
      "payable": true,
      "stateMutability": "payable",
      "type": "function"
    },
    {
      "constant": false,
      "inputs": [
        {
          "name": "_lcID",
          "type": "bytes32"
        },
        {
          "name": "_sequence",
          "type": "uint256"
        },
        {
          "name": "_balances",
          "type": "uint256[4]"
        },
        {
          "name": "_sigA",
          "type": "string"
        },
        {
          "name": "_sigI",
          "type": "string"
        }
      ],
      "name": "consensusCloseChannel",
      "outputs": [],
      "payable": false,
      "stateMutability": "nonpayable",
      "type": "function"
    },
    {
      "constant": false,
      "inputs": [
        {
          "name": "_lcID",
          "type": "bytes32"
        }
      ],
      "name": "updateZeroState",
      "outputs": [],
      "payable": false,
      "stateMutability": "nonpayable",
      "type": "function"
    },
    {
      "constant": false,
      "inputs": [
        {
          "name": "_lcID",
          "type": "bytes32"
        },
        {
          "name": "updateParams",
          "type": "uint256[6]"
        },
        {
          "name": "_VCroot",
          "type": "bytes32"
        },
        {
          "name": "_sigA",
          "type": "string"
        },
        {
          "name": "_sigI",
          "type": "string"
        }
      ],
      "name": "updateLCstate",
      "outputs": [],
      "payable": false,
      "stateMutability": "nonpayable",
      "type": "function"
    },
    {
      "constant": false,
      "inputs": [
        {
          "name": "_lcID",
          "type": "bytes32"
        },
        {
          "name": "_vcID",
          "type": "bytes32"
        },
        {
          "name": "_proof",
          "type": "bytes"
        },
        {
          "name": "_partyA",
          "type": "address"
        },
        {
          "name": "_partyB",
          "type": "address"
        },
        {
          "name": "_bond",
          "type": "uint256[2]"
        },
        {
          "name": "_balances",
          "type": "uint256[4]"
        },
        {
          "name": "sigA",
          "type": "string"
        }
      ],
      "name": "initVCstate",
      "outputs": [],
      "payable": false,
      "stateMutability": "nonpayable",
      "type": "function"
    },
    {
      "constant": false,
      "inputs": [
        {
          "name": "_lcID",
          "type": "bytes32"
        },
        {
          "name": "_vcID",
          "type": "bytes32"
        },
        {
          "name": "updateSeq",
          "type": "uint256"
        },
        {
          "name": "_partyA",
          "type": "address"
        },
        {
          "name": "_partyB",
          "type": "address"
        },
        {
          "name": "updateBal",
          "type": "uint256[4]"
        },
        {
          "name": "sigA",
          "type": "string"
        }
      ],
      "name": "settleVC",
      "outputs": [],
      "payable": false,
      "stateMutability": "nonpayable",
      "type": "function"
    },
    {
      "constant": false,
      "inputs": [
        {
          "name": "_lcID",
          "type": "bytes32"
        },
        {
          "name": "_vcID",
          "type": "bytes32"
        }
      ],
      "name": "closeVirtualChannel",
      "outputs": [],
      "payable": false,
      "stateMutability": "nonpayable",
      "type": "function"
    },
    {
      "constant": false,
      "inputs": [
        {
          "name": "_lcID",
          "type": "bytes32"
        }
      ],
      "name": "byzantineCloseChannel",
      "outputs": [],
      "payable": false,
      "stateMutability": "nonpayable",
      "type": "function"
    },
    {
      "constant": true,
      "inputs": [
        {
          "name": "id",
          "type": "bytes32"
        }
      ],
      "name": "getChannel",
      "outputs": [
        {
          "name": "",
          "type": "address[2]"
        },
        {
          "name": "",
          "type": "uint256[4]"
        },
        {
          "name": "",
          "type": "uint256[4]"
        },
        {
          "name": "",
          "type": "uint256[2]"
        },
        {
          "name": "",
          "type": "uint256"
        },
        {
          "name": "",
          "type": "uint256"
        },
        {
          "name": "",
          "type": "bytes32"
        },
        {
          "name": "",
          "type": "uint256"
        },
        {
          "name": "",
          "type": "uint256"
        },
        {
          "name": "",
          "type": "uint256"
        },
        {
          "name": "",
          "type": "uint256"
        }
      ],
      "payable": false,
      "stateMutability": "view",
      "type": "function"
    },
    {
      "constant": true,
      "inputs": [
        {
          "name": "id",
          "type": "bytes32"
        }
      ],
      "name": "getVirtualChannel",
      "outputs": [
        {
          "name": "",
          "type": "uint256"
        },
        {
          "name": "",
          "type": "uint256"
        },
        {
          "name": "",
          "type": "uint256"
        },
        {
          "name": "",
          "type": "address"
        },
        {
          "name": "",
          "type": "address"
        },
        {
          "name": "",
          "type": "uint256[2]"
        },
        {
          "name": "",
          "type": "uint256[2]"
        },
        {
          "name": "",
          "type": "uint256[2]"
        }
      ],
      "payable": false,
      "stateMutability": "view",
      "type": "function"
    }
  ],
  "bytecode": "0x60806040526000805534801561001457600080fd5b5060405160408061501b83398101604052805160209091015160038054600160a060020a03938416600160a060020a03199182161790915560048054939092169216919091179055614fb08061006b6000396000f3006080604052600436106101105763ffffffff7c01000000000000000000000000000000000000000000000000000000006000350416622e1d7e8114610115578063169401251461012f57806323866438146101985780632890b90d146101ce5780634247a0ba1461021157806365dd43eb146102d6578063831c2b82146102fd578063a3f4df7e14610406578063aeba142c14610490578063aeeec12f146104e0578063bab46259146105e2578063ce32957014610613578063d32fc05a1461062b578063d83866e9146106ae578063e07d39bd1461074f578063efb8c09d14610815578063f69b1b291461082d578063f87c77c014610842578063fdb040231461091b578063ffa1ad7414610936575b600080fd5b34801561012157600080fd5b5061012d60043561094b565b005b34801561013b57600080fd5b50610147600435610ce7565b6040518087600281111561015757fe5b60ff168152602081019690965250604080860194909452600160a060020a03928316606086015290821660808501521660a0830152519081900360c0019150f35b60408051808201825261012d916004803592369260649190602490600290839083908082843750939650610d3095505050505050565b60408051808201825261012d916004803592600160a060020a0360243516923692916084916044906002908390839080828437509396506110da95505050505050565b34801561021d57600080fd5b5060408051608081810190925261012d9160048035926024359236929160c491604490849083908390808284375050604080516020601f88358a0180359182018390048302840183019094528083529699989781019691955091820193509150819084018382808284375050604080516020601f89358b018035918201839004830284018301909452808352979a9998810197919650918201945092508291508401838280828437509497506116f19650505050505050565b3480156102e257600080fd5b506102eb61212a565b60408051918252519081900360200190f35b34801561030957600080fd5b50610315600435612130565b604051808c600260200280838360005b8381101561033d578181015183820152602001610325565b505050509050018b600460200280838360005b83811015610368578181015183820152602001610350565b505050509050018a600460200280838360005b8381101561039357818101518382015260200161037b565b5050505090500189600260200280838360005b838110156103be5781810151838201526020016103a6565b5050505091909101988952505060208701959095526040808701949094526060860192909252608085015260a084015260c0830191909152519081900360e001945092505050f35b34801561041257600080fd5b5061041b61236b565b6040805160208082528351818301528351919283929083019185019080838360005b8381101561045557818101518382015260200161043d565b50505050905090810190601f1680156104825780820380516001836020036101000a031916815260200191505b509250505060405180910390f35b60408051808201825261012d916004803592600160a060020a03602435811693604435936064359092169236929160c491906084906002908390839080828437509396506123a295505050505050565b3480156104ec57600080fd5b50604080516020600460443581810135601f810184900484028501840190955284845261012d948235946024803595369594606494920191908190840183828082843750506040805180820182529598600160a060020a03883581169960208a0135909116989197909650608082019550935081019150600290839083908082843750506040805160808181019092529497969581810195945092506004915083908390808284375050604080516020601f88358a018035918201839004830284018301909452808352969998978101969195509182019350915081908401838280828437509497506127eb9650505050505050565b3480156105ee57600080fd5b506105f7612e83565b60408051600160a060020a039092168252519081900360200190f35b34801561061f57600080fd5b5061012d600435612e92565b34801561063757600080fd5b50610643600435613527565b6040805189815260208101899052908101879052606081018690526080810185905260a0810184600481111561067557fe5b60ff16815260200183815260200182600160a060020a0316600160a060020a031681526020019850505050505050505060405180910390f35b3480156106ba57600080fd5b5060408051608081810190925261012d9160048035926024359260443592600160a060020a03606435811693608435909116923692916101249160a490849083908390808284375050604080516020601f88358a0180359182018390048302840183019094528083529699989781019691955091820193509150819084018382808284375094975061357a9650505050505050565b34801561075b57600080fd5b506040805160c081810190925261012d916004803592369260e49190602490600690839083908082843750506040805160208781013589018035601f81018390048302840183018552808452979a89359a90999098940196509194509081019250819084018382808284375050604080516020601f89358b018035918201839004830284018301909452808352979a999881019791965091820194509250829150840183828082843750949750613c6d9650505050505050565b34801561082157600080fd5b5061012d600435614506565b34801561083957600080fd5b506105f7614628565b34801561084e57600080fd5b5061085a600435614637565b6040805189815260208101899052808201889052600160a060020a038088166060830152861660808201529060a0820190859080838360005b838110156108ab578181015183820152602001610893565b5050505090500183600260200280838360005b838110156108d65781810151838201526020016108be565b5050505090500182600260200280838360005b838110156109015781810151838201526020016108e9565b505050509050019850505050505050505060405180910390f35b34801561092757600080fd5b5061012d6004356024356147dd565b34801561094257600080fd5b5061041b614c69565b60008181526002602052604081208190810154600160a060020a031633146109e3576040805160e560020a62461bcd02815260206004820152602360248201527f52657175657374206e6f742073656e74206279206368616e6e656c207061727460448201527f7920410000000000000000000000000000000000000000000000000000000000606482015290519081900360840190fd5b600160008481526002602052604090206011015460ff166004811115610a0557fe5b14610a5a576040805160e560020a62461bcd02815260206004820152601d60248201527f4368616e6e656c20737461747573206d757374206265204f70656e6564000000604482015290519081900360640190fd5b6000838152600260205260409020600f01544211610ac2576040805160e560020a62461bcd02815260206004820152601f60248201527f4368616e6e656c2074696d656f757420686173206e6f74206578706972656400604482015290519081900360640190fd5b5050600081815260026020819052604080832060118101805460ff191660049081179091559281018054600683018054928790556003840187905594830186905560058301869055938590556007820185905560088201859055600982018590559054915192939092600160a060020a03909216916108fc85150291859190818181858888f19350505050158015610b5e573d6000803e3d6000fd5b5060008381526002602052604081206013810154600160a060020a03169163a9059cbb910154604080517c010000000000000000000000000000000000000000000000000000000063ffffffff8516028152600160a060020a039092166004830152602482018590525160448083019260209291908290030181600087803b158015610be957600080fd5b505af1158015610bfd573d6000803e3d6000fd5b505050506040513d6020811015610c1357600080fd5b50511515610c91576040805160e560020a62461bcd02815260206004820152602560248201527f4372656174654368616e6e656c3a20746f6b656e207472616e7366657220666160448201527f696c757265000000000000000000000000000000000000000000000000000000606482015290519081900360840190fd5b60408051600080825260208201859052818301849052606082018190526080820152905184917f3adff1604df08a519c7848023123530b0c9a05bf082395a43c09e02406deea1a919081900360a00190a2505050565b6001602081905260009182526040909120805491810154600282015460038301546004840154600b9094015460ff9095169492939192600160a060020a03918216928216911686565b600160008381526002602052604090206011015460ff166004811115610d5257fe5b14610da7576040805160e560020a62461bcd02815260206004820152601d60248201527f4368616e6e656c20737461747573206d757374206265204f70656e6564000000604482015290519081900360640190fd5b600082815260026020526040902060010154600160a060020a03163314610e3e576040805160e560020a62461bcd02815260206004820152602a60248201527f4368616e6e656c2063616e206f6e6c79206265206a6f696e656420627920636f60448201527f756e746572706172747900000000000000000000000000000000000000000000606482015290519081900360840190fd5b60008281526002602081905260408220601101805460ff1916909117905554610e68906001614ca0565b60009081558151838252600260205260408220610e9492600a909101905b01549063ffffffff614ca016565b6000838152600260209081526040909120600a01918255820151610eb9916001610e86565b6000838152600260205260409020600b015580513414610f49576040805160e560020a62461bcd02815260206004820152602760248201527f53746174652062616c616e636520646f6573206e6f74206d617463682073656e60448201527f742076616c756500000000000000000000000000000000000000000000000000606482015290519081900360840190fd5b6000828152600260209081526040808320346003820155601301548483015182517f23b872dd00000000000000000000000000000000000000000000000000000000815233600482015230602482015260448101919091529151600160a060020a03909116936323b872dd93606480850194919392918390030190829087803b158015610fd557600080fd5b505af1158015610fe9573d6000803e3d6000fd5b505050506040513d6020811015610fff57600080fd5b5051151561107d576040805160e560020a62461bcd02815260206004820152602360248201527f6a6f696e4368616e6e656c3a20746f6b656e207472616e73666572206661696c60448201527f7572650000000000000000000000000000000000000000000000000000000000606482015290519081900360840190fd5b602080820180516000858152600284526040908190206007019190915583519151815192835292820192909252815184927f594ae021f7ce477644648fbf16215189f3d80a93a772c52f7d6fa9e2050013cb928290030190a25050565b600260008481526002602052604090206011015460ff1660048111156110fc57fe5b14611151576040805160e560020a62461bcd02815260206004820152601d60248201527f4368616e6e656c20737461747573206d757374206265204a6f696e6564000000604482015290519081900360640190fd5b60008381526002602052604081200154600160a060020a03838116911614806111965750600083815260026020526040902060010154600160a060020a038381169116145b15156111ec576040805160e560020a62461bcd02815260206004820181905260248201527f526563697069656e74206d757374206265206368616e6e656c206d656d626572604482015290519081900360640190fd5b60008381526002602052604081200154600160a060020a031633148061122b5750600083815260026020526040902060010154600160a060020a031633145b1515611281576040805160e560020a62461bcd02815260206004820152601d60248201527f53656e646572206d757374206265206368616e6e656c206d656d626572000000604482015290519081900360640190fd5b6000838152600260205260408120600160a060020a038416910154600160a060020a031614156114915780513414611329576040805160e560020a62461bcd02815260206004820152602760248201527f53746174652062616c616e636520646f6573206e6f74206d617463682073656e60448201527f742076616c756500000000000000000000000000000000000000000000000000606482015290519081900360840190fd5b6000838152600260208190526040909120611348913491810190610e86565b6000848152600260209081526040808320600480820195909555601301548583015182517f23b872dd000000000000000000000000000000000000000000000000000000008152339681019690965230602487015260448601529051600160a060020a03909116936323b872dd9360648083019493928390030190829087803b1580156113d457600080fd5b505af11580156113e8573d6000803e3d6000fd5b505050506040513d60208110156113fe57600080fd5b50511515611456576040805160e560020a62461bcd02815260206004820152601f60248201527f6465706f7369743a20746f6b656e207472616e73666572206661696c75726500604482015290519081900360640190fd5b60208082015160008581526002928390526040902061147a92600690910190610e86565b6000848152600260205260409020600801556116a1565b6000838152600260205260409020600160a060020a0383169060010154600160a060020a031614156116a1578051341461153b576040805160e560020a62461bcd02815260206004820152602760248201527f53746174652062616c616e636520646f6573206e6f74206d617463682073656e60448201527f742076616c756500000000000000000000000000000000000000000000000000606482015290519081900360840190fd5b600083815260026020819052604090912061155a913491016003610e86565b600084815260026020908152604080832060058101949094556013909301548482015184517f23b872dd00000000000000000000000000000000000000000000000000000000815233600482015230602482015260448101919091529351600160a060020a03909116936323b872dd9360648083019493928390030190829087803b1580156115e857600080fd5b505af11580156115fc573d6000803e3d6000fd5b505050506040513d602081101561161257600080fd5b5051151561166a576040805160e560020a62461bcd02815260206004820152601f60248201527f6465706f7369743a20746f6b656e207472616e73666572206661696c75726500604482015290519081900360640190fd5b60208082015160008581526002909252604090912061168e91906006016003610e86565b6000848152600260205260409020600901555b805160208083015160408051938452918301528051600160a060020a0385169286927fdcc536683c4a07e85aa77e4aa22f4136e33626a5733d1df879d55423d118789592918290030190a3505050565b60008080600260008981526002602052604090206011015460ff16600481111561171757fe5b1461176c576040805160e560020a62461bcd02815260206004820152601d60248201527f4368616e6e656c20737461747573206d757374206265204a6f696e6564000000604482015290519081900360640190fd5b6000888152600260205260408120600581015460048201546117a593919261179992600a90910190610e86565b9063ffffffff614ca016565b6000898152600260205260409020600981015460088201549295506117d59290916117999190600a016001610e86565b91506117f786600160200201518760005b60200201519063ffffffff614ca016565b8314611873576040805160e560020a62461bcd02815260206004820152603060248201527f4f6e2d636861696e2062616c616e636573206e6f7420657175616c20746f207060448201527f726f76696465642062616c616e63657300000000000000000000000000000000606482015290519081900360840190fd5b6060860151611884908760026117e6565b8214611900576040805160e560020a62461bcd02815260206004820152603060248201527f4f6e2d636861696e2062616c616e636573206e6f7420657175616c20746f207060448201527f726f76696465642062616c616e63657300000000000000000000000000000000606482015290519081900360840190fd5b600088815260026020526040812089916001918a9190819081015460008e8152600260205260409020600160a060020a039091169060010154600160a060020a03168c600060200201518d600160200201518e600260200201518f600360209081029190910151604080518084019d909d529a15157f0100000000000000000000000000000000000000000000000000000000000000028c8c015260418c019990995260618b019790975260818a0195909552600160a060020a039384166c0100000000000000000000000090810260a18b01529290931690910260b588015260c987015260e9860152610109850152610129808501929092528251808503909201825261014990930191829052805190928291908401908083835b60208310611a3b5780518252601f199092019160209182019101611a1c565b51815160209384036101000a6000190180199092169116179052604080519290940182900382207fdca9541900000000000000000000000000000000000000000000000000000000835260048301818152602484019586528c5160448501528c5191985073__ECTools_______________________________975063dca95419965088958d9550909390926064909101919085019080838360005b83811015611aee578181015183820152602001611ad6565b50505050905090810190601f168015611b1b5780820380516001836020036101000a031916815260200191505b50935050505060206040518083038186803b158015611b3957600080fd5b505af4158015611b4d573d6000803e3d6000fd5b505050506040513d6020811015611b6357600080fd5b5051600089815260026020526040902054600160a060020a03908116911614611bd6576040805160e560020a62461bcd02815260206004820152601960248201527f50617274792041207369676e617475726520696e76616c696400000000000000604482015290519081900360640190fd5b604080517fdca95419000000000000000000000000000000000000000000000000000000008152600481018381526024820192835286516044830152865173__ECTools_______________________________9363dca954199386938a9390929160640190602085019080838360005b83811015611c5e578181015183820152602001611c46565b50505050905090810190601f168015611c8b5780820380516001836020036101000a031916815260200191505b50935050505060206040518083038186803b158015611ca957600080fd5b505af4158015611cbd573d6000803e3d6000fd5b505050506040513d6020811015611cd357600080fd5b5051600089815260026020526040902060010154600160a060020a03908116911614611d49576040805160e560020a62461bcd02815260206004820152601960248201527f50617274792049207369676e617475726520696e76616c696400000000000000604482015290519081900360640190fd5b6000888152600260205260408120601101805460ff1916600417905554611d71906001614cb9565b600090815588815260026020819052604080832091820183905560038201839055600482018390556005820183905560068201839055600782018390556008820183905560098201839055905488519151600160a060020a039091169282156108fc02929190818181858888f19350505050158015611df4573d6000803e3d6000fd5b50600088815260026020526040902060010154600160a060020a03166108fc87600160200201516040518115909202916000818181858888f19350505050158015611e43573d6000803e3d6000fd5b506000888152600260209081526040808320601381015490548a83015183517fa9059cbb000000000000000000000000000000000000000000000000000000008152600160a060020a0392831660048201526024810191909152925191169363a9059cbb93604480850194919392918390030190829087803b158015611ec857600080fd5b505af1158015611edc573d6000803e3d6000fd5b505050506040513d6020811015611ef257600080fd5b50511515611f70576040805160e560020a62461bcd02815260206004820152602d60248201527f636f6e73656e737573436c6f73654368616e6e656c3a20746f6b656e2074726160448201527f6e73666572206661696c75726500000000000000000000000000000000000000606482015290519081900360840190fd5b60008881526002602052604090206013810154600160a060020a03169063a9059cbb9060010154600160a060020a031688600360200201516040518363ffffffff167c01000000000000000000000000000000000000000000000000000000000281526004018083600160a060020a0316600160a060020a0316815260200182815260200192505050602060405180830381600087803b15801561201357600080fd5b505af1158015612027573d6000803e3d6000fd5b505050506040513d602081101561203d57600080fd5b505115156120bb576040805160e560020a62461bcd02815260206004820152602d60248201527f636f6e73656e737573436c6f73654368616e6e656c3a20746f6b656e2074726160448201527f6e73666572206661696c75726500000000000000000000000000000000000000606482015290519081900360840190fd5b85516020808801516040808a01516060808c015183518e81529586019690965284830193909352918301919091526080820192909252905189917f3adff1604df08a519c7848023123530b0c9a05bf082395a43c09e02406deea1a919081900360a00190a25050505050505050565b60005481565b612138614e08565b612140614e23565b612148614e23565b612150614e08565b6000806000806000806000612163614e42565b60008d81526002602081905260409182902082516101c08101938490529290918391610180830191849182845b8154600160a060020a0316815260019091019060200180831161219057505050918352505060408051608081019182905260209092019190600284019060049082845b8154815260200190600101908083116121d357505050918352505060408051608081019182905260209092019190600684019060049082845b81548152602001906001019080831161220c575050509183525050604080518082019182905260209092019190600a84019060029082845b815481526020019060010190808311612244575050509183525050600c8201546020820152600d8201546040820152600e8201546060820152600f8201546080820152601082015460a0820152601182015460c09091019060ff1660048111156122aa57fe5b60048111156122b557fe5b8152602001601282015481526020016013820160009054906101000a9004600160a060020a0316600160a060020a0316600160a060020a0316815250509050806000015181602001518260400151836060015184608001518560a001518660c001518760e00151886101000151896101200151600481111561233357fe5b8a61014001518a9a508999508898508797509b509b509b509b509b509b509b509b509b509b509b505091939597999b90929496989a50565b60408051808201909152600e81527f4c6564676572204368616e6e656c000000000000000000000000000000000000602082015281565b60008581526002602052604081206011015460ff1660048111156123c257fe5b14612417576040805160e560020a62461bcd02815260206004820152601660248201527f4368616e6e656c20616c72656164792065786973747300000000000000000000604482015290519081900360640190fd5b600354600160a060020a0383811691161461247c576040805160e560020a62461bcd02815260206004820152601860248201527f546f6b656e206973206e6f742077686974656c69737465640000000000000000604482015290519081900360640190fd5b600454600160a060020a038581169116146124e1576040805160e560020a62461bcd02815260206004820181905260248201527f4368616e6e656c206d7573742062652063726561746564207769746820687562604482015290519081900360640190fd5b6000858152600260205260408120601181018054600160ff19909116811790915581543373ffffffffffffffffffffffffffffffffffffffff199182161783559082018054909116600160a060020a038816179055600c810191909155600d0183905561254e4284614ca0565b6000868152600260208190526040909120600f81019290925561257691600a01908390614eca565b506000858152600260205260409020601301805473ffffffffffffffffffffffffffffffffffffffff1916600160a060020a0384161790558051341461262c576040805160e560020a62461bcd02815260206004820152602560248201527f4574682062616c616e636520646f6573206e6f74206d617463682073656e742060448201527f76616c7565000000000000000000000000000000000000000000000000000000606482015290519081900360840190fd5b600085815260026020818152604080842034938101939093556013909201548482015183517f23b872dd00000000000000000000000000000000000000000000000000000000815233600482015230602482015260448101919091529251600160a060020a03909116936323b872dd936064808201949392918390030190829087803b1580156126bb57600080fd5b505af11580156126cf573d6000803e3d6000fd5b505050506040513d60208110156126e557600080fd5b50511515612763576040805160e560020a62461bcd02815260206004820152602560248201527f4372656174654368616e6e656c3a20746f6b656e207472616e7366657220666160448201527f696c757265000000000000000000000000000000000000000000000000000000606482015290519081900360840190fd5b60208181018051600088815260028452604090819020600681019290925584519251600f909201548151938452600160a060020a03878116958501959095528382019290925260608301919091525191861691339188917f8b2098c2098f06a2c213a9f1bca2306b53ebee7e6c0db45275683b087e94db1c9181900360800190a45050505050565b6000600360008a81526002602052604090206011015460ff16600481111561280f57fe5b14612864576040805160e560020a62461bcd02815260206004820152601f60248201527f4368616e6e656c20737461747573206d75737420626520536574746c696e6700604482015290519081900360640190fd5b600260008981526001602052604090205460ff16600281111561288357fe5b14156128d9576040805160e560020a62461bcd02815260206004820152600c60248201527f564320697320636c6f7365640000000000000000000000000000000000000000604482015290519081900360640190fd5b6000898152600260205260409020601001544211612941576040805160e560020a62461bcd02815260206004820152601d60248201527f557064617465204c432074696d656f7574206e6f742065787069726564000000604482015290519081900360640190fd5b600088815260016020526040902060020154156129a8576040805160e560020a62461bcd02815260206004820152601d60248201527f5570646174652056432074696d656f7574206e6f742065787069726564000000604482015290519081900360640190fd5b8760008787878360200201518860016020020151886000602002015189600160200201518a600260200201518b600360209081029190910151604080518084019c909c528b81019a909a526c01000000000000000000000000600160a060020a03998a16810260608d01529790981690960260748a0152608889019490945260a888019290925260c887015260e8860152610108850152610128808501929092528251808503909201825261014890930191829052805190928291908401908083835b60208310612a8a5780518252601f199092019160209182019101612a6b565b51815160209384036101000a6000190180199092169116179052604080519290940182900382207fdca95419000000000000000000000000000000000000000000000000000000008352600483018181526024840195865289516044850152895191985073__ECTools_______________________________975063dca95419965088958a9550909390926064909101919085019080838360005b83811015612b3d578181015183820152602001612b25565b50505050905090810190601f168015612b6a5780820380516001836020036101000a031916815260200191505b50935050505060206040518083038186803b158015612b8857600080fd5b505af4158015612b9c573d6000803e3d6000fd5b505050506040513d6020811015612bb257600080fd5b5051600160a060020a03878116911614612c16576040805160e560020a62461bcd02815260206004820152601960248201527f50617274792041207369676e617475726520696e76616c696400000000000000604482015290519081900360640190fd5b6000898152600260205260409020600e0154612c359082908990614cd0565b1515600114612cb4576040805160e560020a62461bcd02815260206004820152602760248201527f4f6c64207374617465206973206e6f7420636f6e7461696e656420696e20726f60448201527f6f74206861736800000000000000000000000000000000000000000000000000606482015290519081900360840190fd5b6000888152600160208181526040808420805460ff191684178155600381018054600160a060020a038d811673ffffffffffffffffffffffffffffffffffffffff1992831617909255600483018054928d16929091169190911790559283019390935585516005830155850151600682015590840151600782015560608401516008820155612d4890600901856002614eca565b506000898152600260205260409020600d0154612d6c90429063ffffffff614ca016565b60008981526001602052604081206002019190915588908a907fcffb5a92cc488e2eed0a946d6ec257262e6d235c83295ebfbf4f11712330ca9a908a908a8a898360200201518a60016020020151604051808060200187815260200186600160a060020a0316600160a060020a0316815260200185600160a060020a0316600160a060020a03168152602001848152602001838152602001828103825288818151815260200191508051906020019080838360005b83811015612e39578181015183820152602001612e21565b50505050905090810190601f168015612e665780820380516001836020036101000a031916815260200191505b5097505050505050505060405180910390a3505050505050505050565b600354600160a060020a031681565b60008181526002602052604081209080808080808080600360118a015460ff166004811115612ebd57fe5b14612f12576040805160e560020a62461bcd02815260206004820152601f60248201527f4368616e6e656c20737461747573206d75737420626520536574746c696e6700604482015290519081900360640190fd5b601289015415612f6c576040805160e560020a62461bcd02815260206004820152601260248201527f4f70656e20564373206d75737420626520300000000000000000000000000000604482015290519081900360640190fd5b60108901544211612fc7576040805160e560020a62461bcd02815260206004820152601460248201527f4c432074696d656f7574206e6f74206f7665722e000000000000000000000000604482015290519081900360640190fd5b600589015460048a0154612fe5919061179990600a8d016000610e86565b60098a015460088b01549199506130059161179990600a8d016001610e86565b965061301e60028a0160015b015460028b016000610e86565b955061303760068a0160015b015460068b016000610e86565b9450878610156130705761304f6002808b0190613011565b60028a0190815560058a0154613066916001610e86565b60038a01556130c7565b8588146130c7576040805160e560020a62461bcd02815260206004820152601760248201527f457468206465706f736974206d75737420616464207570000000000000000000604482015290519081900360640190fd5b868510156130fe576130dd60068a01600261302a565b60068a0190815560098a01546130f4916001610e86565b60078a0155613155565b848714613155576040805160e560020a62461bcd02815260206004820152601960248201527f546f6b656e206465706f736974206d7573742061646420757000000000000000604482015290519081900360640190fd5b60118901805460ff19166004179055600054613172906001614cb9565b600090815560028a0101549350600289016001015492506006890160000154915060068901600101549050600060028a01810155600060028a016001015560006002808b010155600060028a0160030155600060068a01810155600060068a0160010155600060068a0160020155600060068a0160030155831515806131f757508215155b15613274578854604051600160a060020a03909116906108fc8615029086906000818181858888f19350505050158015613235573d6000803e3d6000fd5b508860010154604051600160a060020a039091169084156108fc029085906000818181858888f19350505050158015613272573d6000803e3d6000fd5b505b8115158061328157508015155b156134c65760138901548954604080517fa9059cbb000000000000000000000000000000000000000000000000000000008152600160a060020a039283166004820152602481018690529051919092169163a9059cbb9160448083019260209291908290030181600087803b1580156132f957600080fd5b505af115801561330d573d6000803e3d6000fd5b505050506040513d602081101561332357600080fd5b505115156133a1576040805160e560020a62461bcd02815260206004820152602d60248201527f62797a616e74696e65436c6f73654368616e6e656c3a20746f6b656e2074726160448201527f6e73666572206661696c75726500000000000000000000000000000000000000606482015290519081900360840190fd5b6013890154600160a060020a031663a9059cbb8a60010154604080517c010000000000000000000000000000000000000000000000000000000063ffffffff8516028152600160a060020a039092166004830152602482018590525160448083019260209291908290030181600087803b15801561341e57600080fd5b505af1158015613432573d6000803e3d6000fd5b505050506040513d602081101561344857600080fd5b505115156134c6576040805160e560020a62461bcd02815260206004820152602d60248201527f62797a616e74696e65436c6f73654368616e6e656c3a20746f6b656e2074726160448201527f6e73666572206661696c75726500000000000000000000000000000000000000606482015290519081900360840190fd5b600c89015460408051918252602082018690528181018590526060820184905260808201839052518b917f3adff1604df08a519c7848023123530b0c9a05bf082395a43c09e02406deea1a919081900360a00190a250505050505050505050565b6002602052600090815260409020600c810154600d820154600e830154600f8401546010850154601186015460128701546013909701549596949593949293919260ff90911691600160a060020a031688565b6000600360008981526002602052604090206011015460ff16600481111561359e57fe5b146135f3576040805160e560020a62461bcd02815260206004820152601f60248201527f4368616e6e656c20737461747573206d75737420626520536574746c696e6700604482015290519081900360640190fd5b600160008881526001602052604090205460ff16600281111561361257fe5b1461368d576040805160e560020a62461bcd02815260206004820152602760248201527f5669727475616c206368616e6e656c20737461747573206d757374206265205360448201527f6574746c696e6700000000000000000000000000000000000000000000000000606482015290519081900360840190fd5b60008781526001602081905260409091200154861161371c576040805160e560020a62461bcd02815260206004820152602b60248201527f56432073657175656e636520697320686967686572207468616e20757064617460448201527f652073657175656e63652e000000000000000000000000000000000000000000606482015290519081900360840190fd5b6020808401516000898152600190925260409091206006015410801561375657506060830151600088815260016020526040902060080154105b15156137d2576040805160e560020a62461bcd02815260206004820152603260248201527f53746174652075706461746573206d6179206f6e6c7920696e6372656173652060448201527f726563697069656e742062616c616e63652e0000000000000000000000000000606482015290519081900360840190fd5b60208301516137e3908460006117e6565b6000888152600160205260409020600901541480156138225750606083015161380e908460026117e6565b6000888152600160205260409020600a0154145b151561389d576040805160e560020a62461bcd028152602060048201526024808201527f496e636f72726563742062616c616e63657320666f7220626f6e64656420616d60448201527f6f756e7400000000000000000000000000000000000000000000000000000000606482015290519081900360840190fd5b6000878152600160205260409020600201544210613905576040805160e560020a62461bcd02815260206004820152601460248201527f54696d656f757473206e6f742065787069726564000000000000000000000000604482015290519081900360640190fd5b60008781526001602052604081208891889188918891600901015460008c81526001602081905260409091206009010154886000602002015189600160200201518a600260200201518b600360209081029190910151604080518084019c909c528b81019a909a526c01000000000000000000000000600160a060020a03998a16810260608d01529790981690960260748a0152608889019490945260a888019290925260c887015260e8860152610108850152610128808501929092528251808503909201825261014890930191829052805190928291908401908083835b60208310613a045780518252601f1990920191602091820191016139e5565b51815160209384036101000a6000190180199092169116179052604080519290940182900382207fdca95419000000000000000000000000000000000000000000000000000000008352600483018181526024840195865289516044850152895191985073__ECTools_______________________________975063dca95419965088958a9550909390926064909101919085019080838360005b83811015613ab7578181015183820152602001613a9f565b50505050905090810190601f168015613ae45780820380516001836020036101000a031916815260200191505b50935050505060206040518083038186803b158015613b0257600080fd5b505af4158015613b16573d6000803e3d6000fd5b505050506040513d6020811015613b2c57600080fd5b5051600088815260016020526040902060030154600160a060020a03908116911614613ba2576040805160e560020a62461bcd02815260206004820152601960248201527f50617274792041207369676e617475726520696e76616c696400000000000000604482015290519081900360640190fd5b60008781526001602081815260408084209283018a90558651600584015586820151600684015586810151600784015560608701516008909301929092558a8352600290529020600d0154613bf8904290614ca0565b60008881526001602090815260409182902060020183905585518682015183518b8152928301919091528183015233606082015260808101929092525188918a917f1bfe1ed988e2858b674914f8271b4e1d1175facec158ae6deaf2de8845a4777d9181900360a00190a35050505050505050565b600085815260026020819052604082209190601183015460ff166004811115613c9257fe5b1480613cb057506003601183015460ff166004811115613cae57fe5b145b1515613d2c576040805160e560020a62461bcd02815260206004820152602960248201527f4368616e6e656c20737461747573206d757374206265204a6f696e6564206f7260448201527f20536574746c696e670000000000000000000000000000000000000000000000606482015290519081900360840190fd5b600c820154865111613dae576040805160e560020a62461bcd02815260206004820152602c60248201527f53657175656e6365206d75737420626520686967686572206f72207a65726f2d60448201527f7374617465207570646174650000000000000000000000000000000000000000606482015290519081900360840190fd5b6060860151613dbf908760026117e6565b600583015460048401546003850154613de49291611799918290600289016000610e86565b1015613e60576040805160e560020a62461bcd02815260206004820152603b60248201527f4f6e2d636861696e206574682062616c616e636573206d75737420626520686960448201527f67686572207468616e2070726f76696465642062616c616e6365730000000000606482015290519081900360840190fd5b60a0860151613e71908760046117e6565b600983015460088401546007850154613e969291611799918290600689016000610e86565b1015613f12576040805160e560020a62461bcd02815260206004820152603d60248201527f4f6e2d636861696e20746f6b656e2062616c616e636573206d7573742062652060448201527f686967686572207468616e2070726f76696465642062616c616e636573000000606482015290519081900360840190fd5b6003601183015460ff166004811115613f2757fe5b1415613f885760108201544210613f88576040805160e560020a62461bcd02815260206004820152601a60248201527f5570646174652074696d656f7574206e6f742065787069726564000000000000604482015290519081900360640190fd5b866000878160200201518860016020020151888660000154600160a060020a03168760010154600160a060020a03168c600260200201518d600360200201518e600460200201518f600560209081029190910151604080518084019d909d529a15157f0100000000000000000000000000000000000000000000000000000000000000028c8c015260418c019990995260618b019790975260818a0195909552600160a060020a039384166c0100000000000000000000000090810260a18b01529290931690910260b588015260c987015260e9860152610109850152610129808501929092528251808503909201825261014990930191829052805190928291908401908083835b602083106140b05780518252601f199092019160209182019101614091565b51815160209384036101000a6000190180199092169116179052604080519290940182900382207fdca9541900000000000000000000000000000000000000000000000000000000835260048301818152602484019586528b5160448501528b5191985073__ECTools_______________________________975063dca95419965088958c9550909390926064909101919085019080838360005b8381101561416357818101518382015260200161414b565b50505050905090810190601f1680156141905780820380516001836020036101000a031916815260200191505b50935050505060206040518083038186803b1580156141ae57600080fd5b505af41580156141c2573d6000803e3d6000fd5b505050506040513d60208110156141d857600080fd5b5051600160a060020a03168260000154600160a060020a031614614246576040805160e560020a62461bcd02815260206004820152601960248201527f50617274792041207369676e617475726520696e76616c696400000000000000604482015290519081900360640190fd5b604080517fdca95419000000000000000000000000000000000000000000000000000000008152600481018381526024820192835285516044830152855173__ECTools_______________________________9363dca95419938693899390929160640190602085019080838360005b838110156142ce5781810151838201526020016142b6565b50505050905090810190601f1680156142fb5780820380516001836020036101000a031916815260200191505b50935050505060206040518083038186803b15801561431957600080fd5b505af415801561432d573d6000803e3d6000fd5b505050506040513d602081101561434357600080fd5b5051600160a060020a03168260010154600160a060020a0316146143b1576040805160e560020a62461bcd02815260206004820152601960248201527f50617274792049207369676e617475726520696e76616c696400000000000000604482015290519081900360640190fd5b60118201805460ff19166003179055600d8201546143d0904290614ca0565b60108301558560006020020151600c8301558560016020020151601283015585600260200201516002830160000155856003602002015160028301600101556000600280840101556000600283016003015585600460200201516006830160000155856005602002015160068301600101556000600683016002015560006006830160030155600e8201859055867f73cea087c6e027c6aa279ce9ec540d1c2e359a3dda4aaf0a8d28577bb26af2c38760006020020151886001602002015189600260200201518a600360200201518b600460200201518c60056020908102919091015160108b01546040805198895292880196909652868201949094526060860192909252608085015260a084019190915260c083018a905260e083019190915251908190036101000190a250505050505050565b600081815260026020819052604090912090601182015460ff16600481111561452b57fe5b146145a6576040805160e560020a62461bcd02815260206004820152602960248201527f4368616e6e656c20737461747573206d757374206265204a6f696e6564206f7260448201527f20536574746c696e670000000000000000000000000000000000000000000000606482015290519081900360840190fd5b600c81015415614600576040805160e560020a62461bcd02815260206004820152601260248201527f53657175656e6365206d75737420626520300000000000000000000000000000604482015290519081900360640190fd5b60118101805460ff19166003179055600d81015461461f904290614ca0565b60109091015550565b600454600160a060020a031681565b6000806000806000614647614e08565b61464f614e08565b614657614e08565b61465f614f08565b60008a81526001602052604090819020815161012081019092528054829060ff16600281111561468b57fe5b600281111561469657fe5b8152600182015460208201526002808301546040808401919091526003840154600160a060020a039081166060850152600485015416608084015280518082019182905260a09093019291600585019182845b8154815260200190600101908083116146e9575050509183525050604080518082019182905260209092019190600784019060029082845b815481526020019060010190808311614721575050509183525050604080518082019182905260209092019190600984019060029082845b815481526020019060010190808311614759575050509183525050600b9190910154600160a060020a03166020909101528051909150600281111561479a57fe5b602082015160408301516060840151608085015160a086015160c087015160e0880151969f50949d50929b50909950975095509350915050919395975091939597565b600360008381526002602052604090206011015460ff1660048111156147ff57fe5b14614854576040805160e560020a62461bcd02815260206004820152601f60248201527f4368616e6e656c20737461747573206d75737420626520536574746c696e6700604482015290519081900360640190fd5b600160008281526001602052604090205460ff16600281111561487357fe5b146148ee576040805160e560020a62461bcd02815260206004820152602760248201527f5669727475616c206368616e6e656c20737461747573206d757374206265205360448201527f6574746c696e6700000000000000000000000000000000000000000000000000606482015290519081900360840190fd5b600081815260016020526040902060020154421161497c576040805160e560020a62461bcd02815260206004820152602260248201527f5570646174652056432074696d656f757420686173206e6f742065787069726560448201527f642e000000000000000000000000000000000000000000000000000000000000606482015290519081900360840190fd5b60008281526002602052604090206012015461499f90600163ffffffff614cb916565b600083815260026020818152604080842060128101959095558584526001909152909120805460ff191690911781559054600390910154600160a060020a0390811691161415614b0d576000818152600160205260408120614a1b916005909101905b0154600084815260026020819052604082200190610e86565b600083815260026020819052604082200101556000818152600160208190526040909120614a65916005909101905b01546000848152600260208190526040909120016001610e86565b600083815260026020819052604090912001600101556000818152600160205260408120614aad916007909101905b0154600084815260026020526040812060060190610e86565b600083815260026020526040812060060101556000818152600160208190526040909120614af6916007909101905b015460008481526002602052604090206006016001610e86565b600083815260026020526040902060070155614c0b565b60008281526002602052604081200154600082815260016020526040902060040154600160a060020a0390811691161415614c0b576000818152600160208190526040909120614b6291600590910190614a02565b600083815260026020819052604082200101556000818152600160205260408120614b9291600590910190614a4a565b600083815260026020819052604090912001600101556000818152600160208190526040909120614bc891600790910190614a94565b600083815260026020526040812060060101556000818152600160205260408120614bf891600790910190614adc565b6000838152600260205260409020600701555b60008181526001602090815260409182902060078101546008909101548351918252918101919091528151839285927f6ffd15c8707cc55ead84f4bd6e1a07360d2a825d7dacb1456403604948e7ebbf929081900390910190a35050565b60408051808201909152600581527f302e302e31000000000000000000000000000000000000000000000000000000602082015281565b600082820183811015614cb257600080fd5b9392505050565b60008083831115614cc957600080fd5b5050900390565b6000838160405b85518111614dfb5785810151915081831015614d7257604080516020808201869052818301859052825180830384018152606090920192839052815191929182918401908083835b60208310614d3e5780518252601f199092019160209182019101614d1f565b6001836020036101000a03801982511681845116808217855250505050505090500191505060405180910390209250614df3565b604080516020808201859052818301869052825180830384018152606090920192839052815191929182918401908083835b60208310614dc35780518252601f199092019160209182019101614da4565b6001836020036101000a038019825116818451168082178552505050505050905001915050604051809103902092505b602001614cd7565b5050919091149392505050565b60408051808201825290600290829080388339509192915050565b6080604051908101604052806004906020820280388339509192915050565b61028060405190810160405280614e57614e08565b8152602001614e64614e23565b8152602001614e71614e23565b8152602001614e7e614e08565b8152602001600081526020016000815260200160008019168152602001600081526020016000815260200160006004811115614eb657fe5b815260006020820181905260409091015290565b8260028101928215614ef8579160200282015b82811115614ef8578251825591602001919060010190614edd565b50614f04929150614f67565b5090565b60408051610180810190915280600081526000602082018190526040820181905260608201819052608082015260a001614f40614e08565b8152602001614f4d614e08565b8152602001614f5a614e08565b8152600060209091015290565b614f8191905b80821115614f045760008155600101614f6d565b905600a165627a7a7230582028f6efa77912345d70d97b23e5163f5e4bf00011e59f7644d3a59d67c41eb0ae0029",
  "source": "pragma solidity ^0.4.23;\n\nimport \"./lib/ECTools.sol\";\nimport \"./lib/token/HumanStandardToken.sol\";\nimport \"./lib/SafeMath.sol\";\n\n/// @title Set Virtual Channels - A layer2 hub and spoke payment network \n\ncontract LedgerChannel {\n    using SafeMath for uint256;\n\n    string public constant NAME = \"Ledger Channel\";\n    string public constant VERSION = \"0.0.1\";\n\n    uint256 public numChannels = 0;\n\n    event DidLCOpen (\n        bytes32 indexed channelId,\n        address indexed partyA,\n        address indexed partyI,\n        uint256 ethBalanceA,\n        address token,\n        uint256 tokenBalanceA,\n        uint256 LCopenTimeout\n    );\n\n    event DidLCJoin (\n        bytes32 indexed channelId,\n        uint256 ethBalanceI,\n        uint256 tokenBalanceI\n    );\n\n    event DidLCDeposit (\n        bytes32 indexed channelId,\n        address indexed recipient,\n        uint256 ethDeposit,\n        uint256 tokenDeposit\n    );\n\n    event DidLCUpdateState (\n        bytes32 indexed channelId, \n        uint256 sequence, \n        uint256 numOpenVc, \n        uint256 ethBalanceA,\n        uint256 tokenBalanceA,\n        uint256 ethBalanceI,\n        uint256 tokenBalanceI,\n        bytes32 vcRoot,\n        uint256 updateLCtimeout\n    );\n\n    event DidLCClose (\n        bytes32 indexed channelId,\n        uint256 sequence,\n        uint256 ethBalanceA,\n        uint256 tokenBalanceA,\n        uint256 ethBalanceI,\n        uint256 tokenBalanceI\n    );\n\n    event DidVCInit (\n        bytes32 indexed lcId, \n        bytes32 indexed vcId, \n        bytes proof, \n        uint256 sequence, \n        address partyA, \n        address partyB, \n        uint256 balanceA, \n        uint256 balanceB \n    );\n\n    event DidVCSettle (\n        bytes32 indexed lcId, \n        bytes32 indexed vcId,\n        uint256 updateSeq, \n        uint256 updateBalA, \n        uint256 updateBalB,\n        address challenger,\n        uint256 updateVCtimeout\n    );\n\n    event DidVCClose(\n        bytes32 indexed lcId, \n        bytes32 indexed vcId, \n        uint256 balanceA, \n        uint256 balanceB\n    );\n\n    enum ChannelStatus {\n        Nonexistent,\n        Opened,\n        Joined,\n        Settling,\n        Settled\n    }\n\n    struct Channel {\n        address[2] partyAddresses; // 0: partyA 1: partyI\n        uint256[4] ethBalances; // 0: eth 1: token \n        uint256[4] erc20Balances; // 0: eth 1: token\n        uint256[2] initialDeposit; // 0: eth 1: tokens\n        uint256 sequence;\n        uint256 confirmTime;\n        bytes32 VCrootHash;\n        uint256 LCopenTimeout;\n        uint256 updateLCtimeout; // when update LC times out\n        ChannelStatus status;\n        uint256 numOpenVC;\n        HumanStandardToken token; // TODO add onlyowner method for whitelisting tokens\n    }\n\n    enum VirtualChannelStatus {\n        Nonexistent,\n        Settling,\n        Settled\n    }\n\n    // TODO new enum for VC states\n    // virtual-channel state\n    struct VirtualChannel {\n        VirtualChannelStatus status;\n        uint256 sequence;\n        uint256 updateVCtimeout; // when update VC times out\n        // channel state\n        address partyA; // VC participant A\n        address partyB; // VC participant B\n        uint256[2] ethBalances;\n        uint256[2] erc20Balances;\n        uint256[2] bond;\n        HumanStandardToken token;\n    }\n\n    mapping(bytes32 => VirtualChannel) public virtualChannels;\n    mapping(bytes32 => Channel) public Channels;\n\n    address public approvedToken;\n    address public hubAddress;\n\n    constructor(address _token, address _hubAddress) public {\n        approvedToken = _token;\n        hubAddress = _hubAddress;\n    }\n\n    function createChannel(\n        bytes32 _lcID,\n        address _partyI, // TODO can remove this, leaving in to preserve interface\n        uint256 _confirmTime,\n        address _token,\n        uint256[2] _balances // [eth, token]\n    ) \n        public\n        payable \n    {\n        require(Channels[_lcID].status == ChannelStatus.Nonexistent, \"Channel already exists\");\n        require(_token == approvedToken, \"Token is not whitelisted\");\n        require(_partyI == hubAddress, \"Channel must be created with hub\");\n\n        // Set initial ledger channel state\n        // Alice must execute this and we assume the initial state \n        // to be signed from this requirement\n        // Alternative is to check a sig as in joinChannel\n        Channels[_lcID].status = ChannelStatus.Opened;\n\n        Channels[_lcID].partyAddresses[0] = msg.sender;\n        Channels[_lcID].partyAddresses[1] = _partyI;\n\n        Channels[_lcID].sequence = 0;\n        Channels[_lcID].confirmTime = _confirmTime;\n        // is close flag, lc state sequence, number open vc, vc root hash, partyA... \n        //Channels[_lcID].stateHash = keccak256(uint256(0), uint256(0), uint256(0), bytes32(0x0), bytes32(msg.sender), bytes32(_partyI), balanceA, balanceI);\n        Channels[_lcID].LCopenTimeout = now.add(_confirmTime);\n        Channels[_lcID].initialDeposit = _balances;\n\n        Channels[_lcID].token = HumanStandardToken(_token);\n\n        require(msg.value == _balances[0], \"Eth balance does not match sent value\");\n        Channels[_lcID].ethBalances[0] = msg.value;\n\n        require(Channels[_lcID].token.transferFrom(msg.sender, this, _balances[1]),\"CreateChannel: token transfer failure\");\n        Channels[_lcID].erc20Balances[0] = _balances[1];\n\n        emit DidLCOpen(_lcID, msg.sender, _partyI, _balances[0], _token, _balances[1], Channels[_lcID].LCopenTimeout);\n    }\n\n    function LCOpenTimeout(bytes32 _lcID) public {\n        require(msg.sender == Channels[_lcID].partyAddresses[0], \"Request not sent by channel party A\");\n        require(Channels[_lcID].status == ChannelStatus.Opened, \"Channel status must be Opened\");\n        require(now > Channels[_lcID].LCopenTimeout, \"Channel timeout has not expired\");\n\n        // reentrancy protection\n        Channels[_lcID].status = ChannelStatus.Settled;\n        uint256 ethbalanceA = Channels[_lcID].ethBalances[0];\n        uint256 tokenbalanceA = Channels[_lcID].erc20Balances[0];\n\n        Channels[_lcID].ethBalances[0] = 0;\n        Channels[_lcID].ethBalances[1] = 0;\n        Channels[_lcID].ethBalances[2] = 0;\n        Channels[_lcID].ethBalances[3] = 0;\n        Channels[_lcID].erc20Balances[0] = 0;\n        Channels[_lcID].erc20Balances[1] = 0;\n        Channels[_lcID].erc20Balances[2] = 0;\n        Channels[_lcID].erc20Balances[3] = 0;\n\n        Channels[_lcID].partyAddresses[0].transfer(ethbalanceA); \n        require(Channels[_lcID].token.transfer(Channels[_lcID].partyAddresses[0], tokenbalanceA), \"CreateChannel: token transfer failure\");\n\n        emit DidLCClose(_lcID, 0, ethbalanceA, tokenbalanceA, 0, 0);\n    }\n\n    // TODO need settle 0 state function (leave joined channel that doesn't have updates)\n\n    function joinChannel(bytes32 _lcID, uint256[2] _balances) public payable {\n        // require the channel is not open yet\n        require(Channels[_lcID].status == ChannelStatus.Opened, \"Channel status must be Opened\");\n        require(msg.sender == Channels[_lcID].partyAddresses[1], \"Channel can only be joined by counterparty\");\n\n        // no longer allow joining functions to be called\n        Channels[_lcID].status = ChannelStatus.Joined;\n        numChannels = numChannels.add(1);\n\n        // TODO: can separate these by party\n        Channels[_lcID].initialDeposit[0] = Channels[_lcID].initialDeposit[0].add(_balances[0]); // eth\n        Channels[_lcID].initialDeposit[1] = Channels[_lcID].initialDeposit[1].add(_balances[1]); // token\n\n        require(msg.value == _balances[0], \"State balance does not match sent value\");\n        Channels[_lcID].ethBalances[1] = msg.value;\n \n        require(Channels[_lcID].token.transferFrom(msg.sender, this, _balances[1]), \"joinChannel: token transfer failure\");\n        Channels[_lcID].erc20Balances[1] = _balances[1];\n\n        emit DidLCJoin(_lcID, _balances[0], _balances[1]);\n    }\n\n\n    // additive updates of monetary state\n    // TODO check to figure out if party can push counterparty to unrecoverable state with malicious deposit\n    function deposit(\n        bytes32 _lcID, \n        address recipient, \n        uint256[2] _balances // [eth, token]\n    ) \n        public \n        payable \n    {\n        require(Channels[_lcID].status == ChannelStatus.Joined, \"Channel status must be Joined\");\n        require(\n            recipient == Channels[_lcID].partyAddresses[0] || recipient == Channels[_lcID].partyAddresses[1],\n            \"Recipient must be channel member\"\n        );\n        require(\n            msg.sender == Channels[_lcID].partyAddresses[0] || msg.sender == Channels[_lcID].partyAddresses[1],\n            \"Sender must be channel member\"\n        );\n\n        if (Channels[_lcID].partyAddresses[0] == recipient) {\n            require(msg.value == _balances[0], \"State balance does not match sent value\");\n            Channels[_lcID].ethBalances[2] = Channels[_lcID].ethBalances[2].add(msg.value);\n\n            require(Channels[_lcID].token.transferFrom(msg.sender, this, _balances[1]), \"deposit: token transfer failure\");\n            Channels[_lcID].erc20Balances[2] = Channels[_lcID].erc20Balances[2].add(_balances[1]);\n        } else if (Channels[_lcID].partyAddresses[1] == recipient) {\n            require(msg.value == _balances[0], \"State balance does not match sent value\");\n            Channels[_lcID].ethBalances[3] = Channels[_lcID].ethBalances[3].add(msg.value);\n\n            require(Channels[_lcID].token.transferFrom(msg.sender, this, _balances[1]), \"deposit: token transfer failure\");\n            Channels[_lcID].erc20Balances[3] = Channels[_lcID].erc20Balances[3].add(_balances[1]);\n        }\n        \n        emit DidLCDeposit(_lcID, recipient, _balances[0], _balances[1]);\n    }\n\n    // TODO: Check there are no open virtual channels, the client should have cought this before signing a close LC state update\n    function consensusCloseChannel(\n        bytes32 _lcID, \n        uint256 _sequence, \n        uint256[4] _balances, // 0: ethBalanceA 1:ethBalanceI 2:tokenBalanceA 3:tokenBalanceI\n        string _sigA, \n        string _sigI\n    ) \n        public \n    {\n        // assume num open vc is 0 and root hash is 0x0\n        //require(Channels[_lcID].sequence < _sequence);\n        require(Channels[_lcID].status == ChannelStatus.Joined, \"Channel status must be Joined\");\n\n        // TODO change this to use updateLCState logic?\n        uint256 totalEthDeposit = Channels[_lcID].initialDeposit[0].add(Channels[_lcID].ethBalances[2]).add(Channels[_lcID].ethBalances[3]);\n        uint256 totalTokenDeposit = Channels[_lcID].initialDeposit[1].add(Channels[_lcID].erc20Balances[2]).add(Channels[_lcID].erc20Balances[3]);\n        require(totalEthDeposit == _balances[0].add(_balances[1]), \"On-chain balances not equal to provided balances\");\n        require(totalTokenDeposit == _balances[2].add(_balances[3]), \"On-chain balances not equal to provided balances\");\n\n        bytes32 _state = keccak256(\n            abi.encodePacked(\n                _lcID,\n                true,\n                _sequence,\n                uint256(0),\n                bytes32(0x0),\n                Channels[_lcID].partyAddresses[0], \n                Channels[_lcID].partyAddresses[1], \n                _balances[0], \n                _balances[1],\n                _balances[2],\n                _balances[3]\n            )\n        );\n\n        require(Channels[_lcID].partyAddresses[0] == ECTools.recoverSigner(_state, _sigA), \"Party A signature invalid\");\n        require(Channels[_lcID].partyAddresses[1] == ECTools.recoverSigner(_state, _sigI), \"Party I signature invalid\");\n\n        // this will prevent reentrancy\n        Channels[_lcID].status = ChannelStatus.Settled;\n        numChannels = numChannels.sub(1);\n\n        Channels[_lcID].ethBalances[0] = 0; // TODO add comments to array, extract into function\n        Channels[_lcID].ethBalances[1] = 0;\n        Channels[_lcID].ethBalances[2] = 0;\n        Channels[_lcID].ethBalances[3] = 0;\n        Channels[_lcID].erc20Balances[0] = 0;\n        Channels[_lcID].erc20Balances[1] = 0;\n        Channels[_lcID].erc20Balances[2] = 0;\n        Channels[_lcID].erc20Balances[3] = 0;\n\n        Channels[_lcID].partyAddresses[0].transfer(_balances[0]);\n        Channels[_lcID].partyAddresses[1].transfer(_balances[1]);\n\n        require(\n            Channels[_lcID].token.transfer(Channels[_lcID].partyAddresses[0], _balances[2]),\n            \"consensusCloseChannel: token transfer failure\"\n        );\n        require(\n            Channels[_lcID].token.transfer(Channels[_lcID].partyAddresses[1], _balances[3]),\n            \"consensusCloseChannel: token transfer failure\"\n        );\n\n        emit DidLCClose(_lcID, _sequence, _balances[0], _balances[1], _balances[2], _balances[3]);\n    }\n\n    function updateZeroState(bytes32 _lcID) public {\n        Channel storage channel = Channels[_lcID];\n        require(\n            channel.status == ChannelStatus.Joined,\n            \"Channel status must be Joined or Settling\"\n        );\n\n        require(\n            channel.sequence == 0,\n            \"Sequence must be 0\"\n        );\n\n        // update LC state\n        channel.status = ChannelStatus.Settling;\n        channel.updateLCtimeout = now.add(channel.confirmTime);\n    }\n\n    // Byzantine functions\n    // TODO only allowing one update. should not block launch.\n    function updateLCstate(\n        bytes32 _lcID, \n        uint256[6] updateParams, // [sequence, numOpenVc, ethbalanceA, ethbalanceI, tokenbalanceA, tokenbalanceI]\n        bytes32 _VCroot, \n        string _sigA, \n        string _sigI\n    ) \n        public \n    {\n        Channel storage channel = Channels[_lcID];\n        require(\n            channel.status == ChannelStatus.Joined || channel.status == ChannelStatus.Settling,\n            \"Channel status must be Joined or Settling\"\n        );\n        require(\n            updateParams[0] > channel.sequence,\n            \"Sequence must be higher or zero-state update\"\n        ); // do same as vc sequence check\n        require(\n            channel.ethBalances[0].add(channel.ethBalances[1]).add(channel.ethBalances[2]).add(channel.ethBalances[3]) >= updateParams[2].add(updateParams[3]),\n            \"On-chain eth balances must be higher than provided balances\"\n        );\n        require(\n            channel.erc20Balances[0].add(channel.erc20Balances[1]).add(channel.erc20Balances[2]).add(channel.erc20Balances[3]) >= updateParams[4].add(updateParams[5]),\n            \"On-chain token balances must be higher than provided balances\"\n        );\n\n        if (channel.status == ChannelStatus.Settling) { \n            require(channel.updateLCtimeout > now, \"Update timeout not expired\");\n        }\n\n        bytes32 _state = keccak256(\n            abi.encodePacked(\n                _lcID,\n                false, \n                updateParams[0], \n                updateParams[1], \n                _VCroot, \n                channel.partyAddresses[0], \n                channel.partyAddresses[1], \n                updateParams[2], \n                updateParams[3],\n                updateParams[4], \n                updateParams[5]\n            )\n        );\n\n        require(channel.partyAddresses[0] == ECTools.recoverSigner(_state, _sigA), \"Party A signature invalid\");\n        require(channel.partyAddresses[1] == ECTools.recoverSigner(_state, _sigI), \"Party I signature invalid\");\n\n        // update LC state\n        channel.status = ChannelStatus.Settling;\n        channel.updateLCtimeout = now.add(channel.confirmTime);\n        channel.sequence = updateParams[0];\n        channel.numOpenVC = updateParams[1];\n        channel.ethBalances[0] = updateParams[2];\n        channel.ethBalances[1] = updateParams[3];\n        channel.ethBalances[2] = 0;\n        channel.ethBalances[3] = 0;\n        channel.erc20Balances[0] = updateParams[4];\n        channel.erc20Balances[1] = updateParams[5];\n        channel.erc20Balances[2] = 0;\n        channel.erc20Balances[3] = 0;\n        channel.VCrootHash = _VCroot;\n\n        //TODO how do we check to make sure someone doesn't accidentally add a messed up vcRootHash?\n\n        // make settlement flag\n\n        emit DidLCUpdateState (\n            _lcID, \n            updateParams[0], \n            updateParams[1], \n            updateParams[2], \n            updateParams[3],\n            updateParams[4],\n            updateParams[5], \n            _VCroot,\n            channel.updateLCtimeout\n        );\n    }\n\n    // supply initial state of VC to \"prime\" the force push game \n    // TODO: combine with settleVC\n    function initVCstate(\n        bytes32 _lcID, \n        bytes32 _vcID, \n        bytes _proof, \n        address _partyA, \n        address _partyB, \n        uint256[2] _bond,\n        // TODO: assume balanceB is 0\n        uint256[4] _balances, // 0: ethBalanceA 1:ethBalanceB 2:tokenBalanceA 3:tokenBalanceB\n        string sigA\n    ) \n        public \n    {\n        // TODO: require balance B is 0\n\n        // sub-channel must be open\n        require(Channels[_lcID].status == ChannelStatus.Settling, \"Channel status must be Settling\");\n        require(virtualChannels[_vcID].status != VirtualChannelStatus.Settled, \"VC is closed\");\n        // Check time has passed on updateLCtimeout and has not passed the time to store a vc state\n        require(Channels[_lcID].updateLCtimeout < now, \"Update LC timeout not expired\");\n        // prevent rentry of initializing vc state\n        require(virtualChannels[_vcID].updateVCtimeout == 0, \"Update VC timeout not expired\");\n        // partyB is now Ingrid\n        bytes32 _initState = keccak256(\n            abi.encodePacked(_vcID, uint256(0), _partyA, _partyB, _bond[0], _bond[1], _balances[0], _balances[1], _balances[2], _balances[3])\n        );\n\n        // Make sure Alice has signed initial vc state (A/B in oldState)\n        require(_partyA == ECTools.recoverSigner(_initState, sigA), \"Party A signature invalid\");\n\n        // Check the oldState is in the root hash\n        require(_isContained(_initState, _proof, Channels[_lcID].VCrootHash) == true, \"Old state is not contained in root hash\");\n\n        virtualChannels[_vcID].status = VirtualChannelStatus.Settling;\n        virtualChannels[_vcID].partyA = _partyA; // VC participant A\n        virtualChannels[_vcID].partyB = _partyB; // VC participant B\n        virtualChannels[_vcID].sequence = uint256(0);\n        virtualChannels[_vcID].ethBalances[0] = _balances[0];\n        virtualChannels[_vcID].ethBalances[1] = _balances[1];\n        virtualChannels[_vcID].erc20Balances[0] = _balances[2];\n        virtualChannels[_vcID].erc20Balances[1] = _balances[3];\n        virtualChannels[_vcID].bond = _bond;\n        virtualChannels[_vcID].updateVCtimeout = now.add(Channels[_lcID].confirmTime);\n\n        emit DidVCInit(_lcID, _vcID, _proof, uint256(0), _partyA, _partyB, _balances[0], _balances[1]);\n    }\n\n    // TODO: verify state transition since the hub did not agree to this state\n    // make sure the A/B balances are not beyond ingrids bonds  \n    // Params: vc init state, vc final balance, vcID\n    function settleVC(\n        bytes32 _lcID, \n        bytes32 _vcID, \n        uint256 updateSeq, \n        address _partyA, \n        address _partyB,\n        uint256[4] updateBal, // [ethupdateBalA, ethupdateBalB, tokenupdateBalA, tokenupdateBalB]\n        string sigA\n    ) \n        public \n    {\n        // sub-channel must be open\n        require(Channels[_lcID].status == ChannelStatus.Settling, \"Channel status must be Settling\");\n        require(virtualChannels[_vcID].status == VirtualChannelStatus.Settling, \"Virtual channel status must be Settling\");\n\n        // TODO: Can remove this once we implement logic to only allow one settle call\n        require(virtualChannels[_vcID].sequence < updateSeq, \"VC sequence is higher than update sequence.\");\n\n        require(\n            virtualChannels[_vcID].ethBalances[1] < updateBal[1] && virtualChannels[_vcID].erc20Balances[1] < updateBal[3],\n            \"State updates may only increase recipient balance.\"\n        );\n        require(\n            virtualChannels[_vcID].bond[0] == updateBal[0].add(updateBal[1]) &&\n            virtualChannels[_vcID].bond[1] == updateBal[2].add(updateBal[3]), \n            \"Incorrect balances for bonded amount\"\n        );\n        // Check time has passed on updateLCtimeout and has not passed the time to store a vc state\n        // virtualChannels[_vcID].updateVCtimeout should be 0 on uninitialized vc state, and this should\n        // fail if initVC() isn't called first\n        require(now < virtualChannels[_vcID].updateVCtimeout, \"Timeouts not expired\");\n\n        bytes32 _updateState = keccak256(\n            abi.encodePacked(\n                _vcID, \n                updateSeq, \n                _partyA, \n                _partyB, \n                virtualChannels[_vcID].bond[0], \n                virtualChannels[_vcID].bond[1], \n                updateBal[0], \n                updateBal[1], \n                updateBal[2], \n                updateBal[3]\n            )\n        );\n\n        // Make sure Alice has signed a higher sequence new state\n        require(virtualChannels[_vcID].partyA == ECTools.recoverSigner(_updateState, sigA), \"Party A signature invalid\");\n\n        // TODO remove challenger from vc struct and getter\n\n        // TODO: remove this, only can call this function once\n        virtualChannels[_vcID].sequence = updateSeq;\n\n        // channel state\n        virtualChannels[_vcID].ethBalances[0] = updateBal[0];\n        virtualChannels[_vcID].ethBalances[1] = updateBal[1];\n        virtualChannels[_vcID].erc20Balances[0] = updateBal[2];\n        virtualChannels[_vcID].erc20Balances[1] = updateBal[3];\n\n        // TODO: remove this, only can call this function once\n        virtualChannels[_vcID].updateVCtimeout = now.add(Channels[_lcID].confirmTime);\n\n        emit DidVCSettle(_lcID, _vcID, updateSeq, updateBal[0], updateBal[1], msg.sender, virtualChannels[_vcID].updateVCtimeout);\n    }\n\n    function closeVirtualChannel(bytes32 _lcID, bytes32 _vcID) public {\n        require(Channels[_lcID].status == ChannelStatus.Settling, \"Channel status must be Settling\");\n        require(virtualChannels[_vcID].status == VirtualChannelStatus.Settling, \"Virtual channel status must be Settling\");\n        require(virtualChannels[_vcID].updateVCtimeout < now, \"Update VC timeout has not expired.\");\n\n        // reduce the number of open virtual channels stored on LC\n        Channels[_lcID].numOpenVC = Channels[_lcID].numOpenVC.sub(1);\n        // close vc \n        virtualChannels[_vcID].status = VirtualChannelStatus.Settled;\n\n        // re-introduce the balances back into the LC state from the settled VC\n        // decide if this lc is alice or bob in the vc\n        // TODO: refactor into using the indices as variables\n        if(virtualChannels[_vcID].partyA == Channels[_lcID].partyAddresses[0]) {\n            Channels[_lcID].ethBalances[0] = Channels[_lcID].ethBalances[0].add(virtualChannels[_vcID].ethBalances[0]);\n            Channels[_lcID].ethBalances[1] = Channels[_lcID].ethBalances[1].add(virtualChannels[_vcID].ethBalances[1]);\n\n            Channels[_lcID].erc20Balances[0] = Channels[_lcID].erc20Balances[0].add(virtualChannels[_vcID].erc20Balances[0]);\n            Channels[_lcID].erc20Balances[1] = Channels[_lcID].erc20Balances[1].add(virtualChannels[_vcID].erc20Balances[1]);\n        } else if (virtualChannels[_vcID].partyB == Channels[_lcID].partyAddresses[0]) {\n            Channels[_lcID].ethBalances[0] = Channels[_lcID].ethBalances[0].add(virtualChannels[_vcID].ethBalances[1]);\n            Channels[_lcID].ethBalances[1] = Channels[_lcID].ethBalances[1].add(virtualChannels[_vcID].ethBalances[0]);\n\n            Channels[_lcID].erc20Balances[0] = Channels[_lcID].erc20Balances[0].add(virtualChannels[_vcID].erc20Balances[1]);\n            Channels[_lcID].erc20Balances[1] = Channels[_lcID].erc20Balances[1].add(virtualChannels[_vcID].erc20Balances[0]);\n        }\n\n        emit DidVCClose(_lcID, _vcID, virtualChannels[_vcID].erc20Balances[0], virtualChannels[_vcID].erc20Balances[1]);\n    }\n\n    // TODO: allow either LC end-user to nullify the settled LC state and return to off-chain\n    function byzantineCloseChannel(bytes32 _lcID) public {\n        Channel storage channel = Channels[_lcID];\n\n        // check settlement flag\n        require(channel.status == ChannelStatus.Settling, \"Channel status must be Settling\");\n        require(channel.numOpenVC == 0, \"Open VCs must be 0\");\n        require(channel.updateLCtimeout < now, \"LC timeout not over.\");\n\n        // if off chain state update didnt reblance deposits, just return to deposit owner\n        uint256 totalEthDeposit = channel.initialDeposit[0].add(channel.ethBalances[2]).add(channel.ethBalances[3]);\n        uint256 totalTokenDeposit = channel.initialDeposit[1].add(channel.erc20Balances[2]).add(channel.erc20Balances[3]);\n\n        uint256 possibleTotalEthBeforeDeposit = channel.ethBalances[0].add(channel.ethBalances[1]); \n        uint256 possibleTotalTokenBeforeDeposit = channel.erc20Balances[0].add(channel.erc20Balances[1]);\n\n        if (possibleTotalEthBeforeDeposit < totalEthDeposit) {\n            channel.ethBalances[0] = channel.ethBalances[0].add(channel.ethBalances[2]);\n            channel.ethBalances[1] = channel.ethBalances[1].add(channel.ethBalances[3]);\n        } else {\n            require(possibleTotalEthBeforeDeposit == totalEthDeposit, \"Eth deposit must add up\");\n        }\n\n        if (possibleTotalTokenBeforeDeposit < totalTokenDeposit) {\n            channel.erc20Balances[0] = channel.erc20Balances[0].add(channel.erc20Balances[2]);\n            channel.erc20Balances[1] = channel.erc20Balances[1].add(channel.erc20Balances[3]);\n        } else {\n            require(possibleTotalTokenBeforeDeposit == totalTokenDeposit, \"Token deposit must add up\");\n        }\n\n        // reentrancy\n        channel.status = ChannelStatus.Settled;\n        numChannels = numChannels.sub(1);\n\n        uint256 ethbalanceA = channel.ethBalances[0];\n        uint256 ethbalanceI = channel.ethBalances[1];\n        uint256 tokenbalanceA = channel.erc20Balances[0];\n        uint256 tokenbalanceI = channel.erc20Balances[1];\n\n        channel.ethBalances[0] = 0;\n        channel.ethBalances[1] = 0;\n        channel.ethBalances[2] = 0;\n        channel.ethBalances[3] = 0;\n        channel.erc20Balances[0] = 0;\n        channel.erc20Balances[1] = 0;\n        channel.erc20Balances[2] = 0;\n        channel.erc20Balances[3] = 0;\n\n        if (ethbalanceA != 0 || ethbalanceI != 0) {\n            channel.partyAddresses[0].transfer(ethbalanceA);\n            channel.partyAddresses[1].transfer(ethbalanceI);\n        }\n\n        if (tokenbalanceA != 0 || tokenbalanceI != 0) {\n            require(\n                channel.token.transfer(channel.partyAddresses[0], tokenbalanceA),\n                \"byzantineCloseChannel: token transfer failure\"\n            );\n            require(\n                channel.token.transfer(channel.partyAddresses[1], tokenbalanceI),\n                \"byzantineCloseChannel: token transfer failure\"\n            );          \n        }\n\n        emit DidLCClose(_lcID, channel.sequence, ethbalanceA, ethbalanceI, tokenbalanceA, tokenbalanceI);\n    }\n\n    function _isContained(bytes32 _hash, bytes _proof, bytes32 _root) internal pure returns (bool) {\n        bytes32 cursor = _hash;\n        bytes32 proofElem;\n\n        for (uint256 i = 64; i <= _proof.length; i += 32) {\n            assembly { proofElem := mload(add(_proof, i)) }\n\n            if (cursor < proofElem) {\n                cursor = keccak256(abi.encodePacked(cursor, proofElem));\n            } else {\n                cursor = keccak256(abi.encodePacked(proofElem, cursor));\n            }\n        }\n\n        return cursor == _root;\n    }\n\n    // Struct Getters\n    function getChannel(bytes32 id) public view returns (\n        address[2],\n        uint256[4],\n        uint256[4],\n        uint256[2],\n        uint256,\n        uint256,\n        bytes32,\n        uint256,\n        uint256,\n        uint256,\n        uint256\n    ) {\n        Channel memory channel = Channels[id];\n        return (\n            channel.partyAddresses,\n            channel.ethBalances, // 0: balanceA 1:balanceI 2:depositedA 3:depositedI\n            channel.erc20Balances, // 0: balanceA 1:balanceI 2:depositedA 3:depositedI\n            channel.initialDeposit,\n            channel.sequence,\n            channel.confirmTime,\n            channel.VCrootHash,\n            channel.LCopenTimeout,\n            channel.updateLCtimeout,\n            uint256(channel.status),\n            channel.numOpenVC\n        );\n    }\n\n    function getVirtualChannel(bytes32 id) public view returns(\n        uint256,\n        uint256,\n        uint256,\n        address,\n        address,\n        uint256[2],\n        uint256[2],\n        uint256[2]\n    ) {\n        VirtualChannel memory virtualChannel = virtualChannels[id];\n        return(\n            uint256(virtualChannel.status),\n            virtualChannel.sequence,\n            virtualChannel.updateVCtimeout,\n            virtualChannel.partyA,\n            virtualChannel.partyB,\n            virtualChannel.ethBalances,\n            virtualChannel.erc20Balances,\n            virtualChannel.bond\n        );\n    }\n}\n",
  "sourcePath": "/Users/rahul/Desktop/connext/connext-kernle/packages/contracts/contracts/LedgerChannel.sol",
  "compiler": {
    "name": "solc",
    "version": "0.4.24+commit.e67f0147.Emscripten.clang"
  },
  "schemaVersion": "3.0.0-beta.0",
  "updatedAt": "2018-10-12T03:48:10.560Z"
}